:020000040000fa
:080000000002040000000000f2
:020000040000fa
:040008002a040000c6
:020000040000fa
:04000c002a040000c2
:020000040000fa
:040010002a040000be
:020000040000fa
:040014002a040000ba
:020000040000fa
:040018002a040000b6
:020000040000fa
:04001c002a040000b2
:020000040000fa
:040020002a040000ae
:020000040000fa
:040024002a040000aa
:020000040000fa
:040028002a040000a6
:020000040000fa
:04002c002a040000a2
:020000040000fa
:040030002a0400009e
:020000040000fa
:040034002a0400009a
:020000040000fa
:040038002a04000096
:020000040000fa
:04003c002a04000092
:020000040000fa
:040040002a0400008e
:020000040000fa
:040044002e03000087
:020000040000fa
:04004800d8020000da
:020000040000fa
:04004c002a04000082
:020000040000fa
:040050002a0400007e
:020000040000fa
:040054005003000055
:020000040000fa
:040058002a04000076
:020000040000fa
:04005c002a04000072
:020000040000fa
:040060002a0400006e
:020000040000fa
:040064002a0400006a
:020000040000fa
:040068002a04000066
:020000040000fa
:04006c002a04000062
:020000040000fa
:040070002a0400005e
:020000040000fa
:040074002a0400005a
:020000040000fa
:0400780090030000f1
:020000040000fa
:04007c002a04000052
:020000040000fa
:040080002a0400004e
:020000040000fa
:040084002a0400004a
:020000040000fa
:040088002a04000046
:020000040000fa
:04008c002a04000042
:020000040000fa
:040090002a0400003e
:020000040000fa
:040094002a0400003a
:020000040000fa
:04009800f60200006c
:020000040000fa
:04009c002a04000032
:020000040000fa
:0400a0002a0400002e
:020000040000fa
:0400a4002a0400002a
:020000040000fa
:0400a8002a04000026
:020000040000fa
:0400ac002a04000022
:020000040000fa
:0400b0002a0400001e
:020000040000fa
:0400b4002a0400001a
:020000040000fa
:0400b8002a04000016
:020000040000fa
:0400bc002a04000012
:020000040000fa
:0400c0002a0400000e
:020000040000fa
:0400c4002a0400000a
:020000040000fa
:0400c8002a04000006
:020000040000fa
:0400cc002a04000002
:020000040000fa
:0400d0002a040000fe
:020000040000fa
:0400d4002a040000fa
:020000040000fa
:0400d8002a040000f6
:020000040000fa
:0400dc002a040000f2
:020000040000fa
:0400e0002a040000ee
:020000040000fa
:0400e4002a040000ea
:020000040000fa
:0400e8002a040000e6
:020000040000fa
:0400ec002a040000e2
:020000040000fa
:0400f0002a040000de
:020000040000fa
:0400f4002a040000da
:020000040000fa
:0400f8002a040000d6
:020000040000fa
:0400fc002a040000d2
:020000040000fa
:040100002a040000cd
:020000040000fa
:040104002a040000c9
:020000040000fa
:040108002a040000c5
:020000040000fa
:04010c002a040000c1
:020000040000fa
:040110002a040000bd
:020000040000fa
:040114002a040000b9
:020000040000fa
:040118002a040000b5
:020000040000fa
:04011c002a040000b1
:020000040000fa
:040120002a040000ad
:020000040000fa
:040124002a040000a9
:020000040000fa
:040128002a040000a5
:020000040000fa
:04012c002a040000a1
:020000040000fa
:040130002a0400009d
:020000040000fa
:040134002a04000099
:020000040000fa
:040138002a04000095
:020000040000fa
:04013c002a04000091
:020000040000fa
:040140002a0400008d
:020000040000fa
:040144002a04000089
:020000040000fa
:040148002a04000085
:020000040000fa
:04014c002a04000081
:020000040000fa
:040150002a0400007d
:020000040000fa
:040154002a04000079
:020000040000fa
:040158002a04000075
:020000040000fa
:04015c002a04000071
:020000040000fa
:040160002a0400006d
:020000040000fa
:040164002a04000069
:020000040000fa
:040208002a040000c4
:020000040000fa
:04020c002a040000c0
:020000040000fa
:040210002a040000bc
:020000040000fa
:040214002a040000b8
:020000040000fa
:040218002a040000b4
:020000040000fa
:04021c002a040000b0
:020000040000fa
:040220002a040000ac
:020000040000fa
:040224002a040000a8
:020000040000fa
:040228002a040000a4
:020000040000fa
:04022c002a040000a0
:020000040000fa
:040230002a0400009c
:020000040000fa
:040234002a04000098
:020000040000fa
:040238002a04000094
:020000040000fa
:04023c002a04000090
:020000040000fa
:040240002a0400008c
:020000040000fa
:040244002a04000088
:020000040000fa
:040248002a04000084
:020000040000fa
:04024c002a04000080
:020000040000fa
:040250002a0400007c
:020000040000fa
:040254002a04000078
:020000040000fa
:040258002a04000074
:020000040000fa
:04025c002a04000070
:020000040000fa
:040260002a0400006c
:020000040000fa
:040264002a04000068
:020000040000fa
:040268002a04000064
:020000040000fa
:04026c002a04000060
:020000040000fa
:040270002a0400005c
:020000040000fa
:040274002a04000058
:020000040000fa
:040278002a04000054
:020000040000fa
:04027c002a04000050
:020000040000fa
:040280002a0400004c
:020000040000fa
:040284002a04000048
:020000040000fa
:040288002a04000044
:020000040000fa
:04028c002a04000040
:020000040000fa
:040290002a0400003c
:020000040000fa
:040294002a04000038
:020000040000fa
:040298002a04000034
:020000040000fa
:04029c002a04000030
:020000040000fa
:0402a0002a0400002c
:020000040000fa
:0402a4002a04000028
:020000040000fa
:0402a8002a04000024
:020000040000fa
:0402ac002a04000020
:020000040000fa
:0402b0002a0400001c
:020000040000fa
:0402b4002a04000018
:020000040000fa
:0402b8002a04000014
:020000040000fa
:0402bc002a04000010
:020000040000fa
:0402c0002a0400000c
:020000040000fa
:0402c4002a04000008
:020000040000fa
:0402c8002a04000004
:020000040000fa
:0402cc002a04000000
:020000040000fa
:0402d0002a040000fc
:020000040000fa
:0402d4002a040000f8
:020000040000fa
:0402d8002a040000f4
:020000040000fa
:0402dc002a040000f0
:020000040000fa
:0402e0002a040000ec
:020000040000fa
:0402e4002a040000e8
:020000040000fa
:0402e8002a040000e4
:020000040000fa
:0402ec002a040000e0
:020000040000fa
:0402f0002a040000dc
:020000040000fa
:0402f4002a040000d8
:020000040000fa
:0402f8002a040000d4
:020000040000fa
:0402fc002a040000d0
:020000040000fa
:040300002a040000cb
:020000040000fa
:040304002a040000c7
:020000040000fa
:040308002a040000c3
:020000040000fa
:04030c002a040000bf
:020000040000fa
:040310002a040000bb
:020000040000fa
:040314002a040000b7
:020000040000fa
:040318002a040000b3
:020000040000fa
:04031c002a040000af
:020000040000fa
:040320002a040000ab
:020000040000fa
:040324002a040000a7
:020000040000fa
:040328002a040000a3
:020000040000fa
:04032c002a0400009f
:020000040000fa
:040330002a0400009b
:020000040000fa
:040334002a04000097
:020000040000fa
:040338002a04000093
:020000040000fa
:04033c002a0400008f
:020000040000fa
:040340002a0400008b
:020000040000fa
:040344002a04000087
:020000040000fa
:040348002a04000083
:020000040000fa
:04034c002a0400007f
:020000040000fa
:040350002a0400007b
:020000040000fa
:040354002a04000077
:020000040000fa
:040358002a04000073
:020000040000fa
:04035c002a0400006f
:020000040000fa
:040360002a0400006b
:020000040000fa
:040364002a04000067
:020000040000fa
:100400002f9620000e7f22000e01880000000000c1
:10041000000020000000e000020032000001200087
:10042000200288000e00070060c4200001002000a8
:10043000810f700001003200220007000000200040
:100440000000e00002003200000002000000000096
:1004500038060200000000000040da000000fe0044
:100460004440a900000020000000e000030032002a
:1004700000002000a00188004440a8000000060001
:10048000f03fb1000180b10006003500ee03090025
:1004900000000000403fb1000180b100fbff3d00c3
:1004a0001000b000203fb0000200350000800900bd
:1004b00000000000000006008a1f78008b1f7800f3
:1004c0000000060091018800800478000000eb0025
:1004d0001a003700e284440032a0b4009905ba0043
:1004e000e284440032a0b4009906ba00e2844400d9
:1004f00032a0b4000006eb00476fde00fd07b2003b
:10050000636ce10003003a00ebff07000000eb0022
:100510000a003700606ce10004003a00005deb0067
:100520008b05e900fdff3e00040037006168e10033
:10053000010032000086eb000b00070019c7ba006b
:100540001905ba000e04e00003003a000a00e000ba
:10055000e0ff3a0000000600fe07b2009e0188009e
:100560008a047800f5ff3700395dba008b05e90091
:100570000c003200295dba008b05e900080032004a
:100580000c00e00003003a00e284440032a0b40012
:10059000f5ff370019ddba008b05e900faff3a00d4
:1005a0008904e800e184440032a0b40000000600a1
:1005b000809fbe000000fa008500a900d0802000c6
:1005c0009040780000c8bf0080cf500002003a0081
:1005d00010c0b30002e8b7000068ef0013e1a90003
:1005e0000080fa004f00be0000400600809fbe0061
:1005f0000000fa001821ef008780a90004c8bf009e
:10060000f44f50000f003a0030c0b30002e8b700ca
:100610000468ef00e095200011c0b30001487800a5
:100620000096200061c0b30001487800f0952000da
:1006300011c0b3000148780050c4b30006e8b70009
:100640000300370004c8bf000040e80004e8b7001a
:100650000080fa004f00be0000400600801f7800b6
:100660000000fa000621ef0084e0a90005c8bf00e1
:10067000f44f500004003a000568ef0050c0b3008a
:1006800002e8b7000300370005c8bf000040e800db
:1006900005e8b7000080fa004f007800004006002f
:1006a000809fbe00821f78000200fa003011800097
:1006b000004f78008560a9000a21ef0000c8bf0044
:1006c0000004e00009003a001e407800e34f4000bb
:1006d0000e003a0010c0b30000e8b700c080200050
:1006e000d1cfb300014878000800370000c8bf0030
:1006f0000080fb00c18020001e41780082707800dd
:1007000000c8bf000040e80000e8b70013e1a800ff
:100710000080fa004f0178004f00be000040060044
:100720003600f800809fbe00829fbe00849fbe00fe
:10073000869fbe000200fa008680a9000ac8bf009a
:100740000080fb00e10f500039003200410420001e
:10075000810f5000240032000000e00035003a0014
:10076000cc0307000082200001030700cc00070033
:100770008040eb00c0c1b300380007000040eb0030
:1007800042000700df00070011c0b300c0c1b30082
:100790003200070010c0b30078000700004f780057
:1007a000a1c2b30040c0b3001c04070091c0b30055
:1007b0000040eb0019040700d1c2b3000040eb0079
:1007c00016040700e1c2b3000040eb001304070069
:1007d000a1c2b30050c0b3001004070020c0b30092
:1007e0000ae8b70013003700ca02a800a9030700ef
:1007f00000822000de020700a90007008040eb0015
:10080000c0c1b300150007000040eb001f00070047
:10081000bc00070011c0b300c0c1b3000f00070047
:1008200010c0b30055000700004f780001003700ea
:10083000000000000268ef000080fa004f03be00d5
:100840004f02be004f01be004f00be003600f9004f
:0c085000004006000040da000000fe003e
:020000040000fa
:10085c000400fa0020479800314798002e40900081
:10086c0000404000804078003e40900000cf4000a7
:10087c001e407800020007000080fa00000006000d
:10088c000200fa00004f78000000000040108000c9
:10089c00610060000000e000fcff3a008620a90027
:1008ac001e80fb001010880000000000411080002a
:1008bc0000002800008060000000e000fbff3a0010
:1008cc000000000030048000620060000000e000c6
:1008dc00fcff3a00000000004110800000002400e2
:1008ec00008060000000e000fbff3a000080fa008e
:1008fc00000006000800fa00100798004147980015
:10090c0052479800634798008040eb006e4090007f
:10091c00cfff07005e409000d9ff07000040eb00be
:10092c00004f7800060037001e80fb009e009000f0
:10093c000080400010407800d1ff07001e4fe800f7
:10094c004e4090009e40780080cf5000f6ff39005a
:10095c000642a80000000000301080006400600017
:10096c000000e000fcff3a000080fa0000000600e6
:10097c000400fa00204798008620a9000662a8000f
:10098c000000000030048000620060000000e00005
:10099c00fcff3a008620a9000000000040108000f7
:1009ac00620060000000e000fcff320000108000dc
:1009bc00004f78002e409000e14f500001003a00ab
:1009cc003d0007001e4078000080fa000000060081
:1009dc000800fa00881f780010079800414798001b
:1009ec0052479800634798002a0007008040eb00ac
:1009fc006e40900096ff07005e409000a0ff07003d
:100a0c003d00070011c0b3006e40900090ff07003e
:100a1c000040eb00004f78000040eb00004f7800e6
:100a2c00140037001e80fb009e00900000844000e4
:100a3c000040eb00ceff0700004c78009e80fb00ce
:100a4c004e4090000080fb000000e900808f5000b9
:100a5c000700320006a2a9000682a80000000000d0
:100a6c0030108000700060000000e000fcff3a00d5
:100a7c001e4fe8004e4090009e40780080cf500002
:100a8c00e8ff39000c0007004f0478000080fa00e2
:100a9c00000006000000fa000602a800000000009a
:100aac0030108000610060000000e000fcff3a00a4
:100abc000080fa00000006000000fa0006a2a80060
:100acc000682a8000000000030108000700060005a
:100adc000000e000fcff3a000642a8000000000005
:100aec0030108000640060000000e000fcff3a0061
:100afc000080fa00000006000000fa000622a800a0
:100b0c000000000030108000620060000000e00077
:100b1c00fcff3a000080fa00000006000a00fa0010
:100b2c0020479800314798004247980033079800b7
:100b3c00440798003e4090006340400010479800e6
:100b4c000040eb00004f78001f0037001e80fb00b8
:100b5c00e10f500008003200e20f50000b00320091
:100b6c000000e0000e003a004e009000ae409000f5
:100b7c0001487800130037004e0090000000e80098
:100b8c009e409000014878000e0037004e00900007
:100b9c000080e800ce409000014878000900370042
:100bac001e80fb00ce009000008040009e80fb0069
:100bbc00e38050003e01900081004100914078009c
:100bcc00014878001e4fe8001e4090009e407800bf
:100bdc0080cf5000ddff39000080fa0000000600d5
:100bec000800fa00100798002107980032079800b7
:100bfc001e0090000000e800104078006340500098
:100c0c00104798001e0090000080e800904078008b
:100c1c003e009000014878000040eb00004f780047
:100c2c000a0037001e80fb00ae00900000804000e0
:100c3c009e80fb00e38040001e019000810041007b
:100c4c0091407800014878001e4fe8001e4090004b
:100c5c009e40780080cf5000f2ff39000080fa00ef
:100c6c00000006008400fa00540007008f00070003
:100c7c007f000700ad000700dd0007000040eb001f
:100c8c00004f7800e10047003b0009008058eb0062
:100c9c008e007800d103b000450009008058eb00ad
:100cac00ee020700004f78001e407800fa4f50000b
:100cbc0003003a0000c0eb0001e8b7008400070015
:100ccc00218020009140780001c8bf0000c0600066
:100cdc000080fb00e20f500019003200e20f5000c0
:100cec0005003c000000e0000a003200e10f50005b
:100cfc00090032002e003700e40f500026003200ad
:100d0c00e40f500020003500e50f500025003200a4
:100d1c0027003700280037000e00e8006280200012
:100d2c0080007800c0802000adff070061802000ab
:100d3c00914078000e00e800bf0007001e0037004d
:100d4c0061802000914078000096200010407800cf
:100d5c00d30320008e8141000e01e80003027800cd
:100d6c00820178000141780080407800e0cfb30028
:100d7c006aff0700d00320000e0040007901070035
:100d8c000a0107000c0037000e00e80022010700e2
:100d9c000a0107000800370091010700160107003f
:100dac000500370072020700170107000200370028
:100dbc000268ef00c2ff3700c1ff37000000fa00e5
:100dcc0080022000303a8800213a8000f0f32f0096
:100ddc0000806000203a8800213a800000fe2f003d
:100dec0000806000203a880032002000800720003c
:100dfc00a1092000337420008049780081497800d3
:100e0c008249780012002000600420007105200047
:100e1c002374200080497800814978008249780049
:100e2c0000000000113a8000000027008080600064
:100e3c0000002300808f5000faff3a0000000000f1
:100e4c00113a800000022000008060000000e000e9
:100e5c00fbff320060042000103a8800700520006f
:100e6c00103a880042c7a9000080fa000000060072
:100e7c000000fa000080eb00601988000080eb0095
:100e8c0060198800c802a90001348000f00f2e0000
:100e9c000080600000a0a000003488008680a900bb
:100eac009680a8000080fa00000006000000fa00fe
:100ebc00d00520002010880007e2a8008600a900b9
:100ecc000722a8000762a9000080fa0000000600b3
:100edc000000fa00effe07008040eb00c0c1b30039
:100eec005bfe0700a0c2b30065fe070050c0b30054
:100efc0063fe07000642a8000000000030108000ce
:100f0c00640060000000e000fcff3a00e1c0b300a8
:100f1c0000c1b3003e020700f1c0b30020c2b30011
:100f2c003b0207000080fa00000006000000fa00f7
:100f3c0021068000f0f82f00808060000006200061
:100f4c0001007000200688002135800000fe2f0073
:100f5c00008060000030a000203588003136800011
:100f6c00f00f2e0080806000003020000100700027
:100f7c0030368800100820004011880023e2a800b9
:100f8c0021e2a8009560a8002342a800009620004a
:100f9c000100200037fd07008580a9008560a900ad
:100fac000080fa00000006000000fa00a1c2b300a5
:100fbc0040c0b3001602070091c0b30000c8b300d4
:100fcc0013020700d1c2b30000c4b3001002070023
:100fdc00e1c2b30000c4b3000d020700a1c2b3000c
:100fec0050c0b3000a0207000080fa00000006009f
:100ffc000000fa000080eb00700888000a21ef0066
:10100c008500a9009500a80000c42900e00888000c
:10101c001821ef008780a9009780a80000e2240027
:10102c00600888000621ef0084e0a90094e0a80085
:10103c000080fa00000006000400fa00000f78009f
:10104c002147980030c0b30002e8b7002e40900052
:10105c000080fb006101b900f0fb2f00f1ff2f00b5
:10106c000200400083804800920020000300200012
:10107c00820f5000838f58004a003e000060010030
:10108c0009003700120037001b0037002900370019
:10109c002c0037002e0037003000370033003700ab
:1010ac00360037003b003700e095200011c0b3003c
:1010bc00014878000096200021c3b3000148780055
:1010cc00f09520008040eb00014878003500370097
:1010dc00e095200011c0b300014878000096200074
:1010ec0061c0b30001487800f095200011c0b30036
:1010fc00014878002b003700e09520008040eb0081
:10110c00014878000096200011c0b3000148780017
:10111c001e00780090407800f0952000014878007f
:10112c001e00e800904078001e007800014878000e
:10113c001c0037009cff07000a68ef000268ef00f4
:10114c001800370040c0b30002e8b70015003700a4
:10115c0040c0b30002e8b7001200370010c0b30063
:10116c003d0107000268ef000e0037000040eb0065
:10117c00390107000268ef000a00370010c0b30005
:10118c000ae8b70010c0b300040107000268ef00c2
:10119c00040037000040eb00000107000268ef007c
:1011ac00000000000080fa00000006000000fa00b9
:1011bc000268ef000080fa00000006000000fa0050
:1011cc00e0952000104078000080fb000000e0005b
:1011dc0005003200e10f500005003a0020c0b300ba
:1011ec0002e8b700020037000268ef0000000000c0
:1011fc000080fa00000006000000fa000268ef0010
:10120c000080fa00000006000000fa000268ef00ff
:10121c000080fa00000006000a00fa00400798005f
:10122c00e1004700060009008058eb000040eb008d
:10123c00004f7800e0952000104078000080fb0003
:10124c000000e00035003200e10f500043003a008e
:10125c000109800000002800008060000000e00010
:10126c002b00320021e1a9000e00e80073000700fa
:10127c000040eb00004f7800190037001e81fb0086
:10128c00b0aa2a000010b8000100d1006300b90018
:10129c000000780000005100004078000004e000dd
:1012ac00080032001e80fb00ce0090000080400041
:1012bc009e80fb008100470091409000014878001f
:1012cc00060037001e80fb00ce009000008040001e
:1012dc007180200091407800014878001e4fe80092
:1012ec001e407800e84f5000e4ff360007c8bf00ee
:1012fc000040e80007e8b7000096200091c0b3005a
:10130c000148780050c4b30006e8b700130037005a
:10131c004e0090004900070010003700a1c2b30036
:10132c0040c0b3003a010700f095200090407800cf
:10133c000096200010407800c3c1b3000141780032
:10134c00804078004e0090006afd0700a1c2b300f7
:10135c0050c0b3002e010700000000000080fa000e
:10136c00000006000400fa00100798000040eb0093
:10137c00004f78000d0037001e80fb009e0090008f
:10138c0000804000104078000080fb002011880095
:10139c00000000001111800000202000008060007f
:1013ac000000e000fbff3a001e4fe8001e0090001a
:1013bc000000e800104078009e4f5000eeff3e0009
:1013cc00618020009140780050c4b30080cf500061
:1013dc0001003a0021e1a8000080fa00000006009c
:1013ec000000fa0001098000000028000080600065
:1013fc000000e0000200320021e1a9000d003700de
:10140c001821ef000468ef000768ef0021e1a80045
:10141c00e095200011c0b300014878000096200030
:10142c0061c0b30001487800f095200011c0b300f2
:10143c00014878000080fa00000006003200fa0033
:10144c00001f9800009620009040780020c3b30045
:10145c0080cf500046003a00e10047000700090029
:10146c008058eb00e9004700100009008058eb00a1
:10147c00fa004700090009008018eb008058eb00c7
:10148c000e00e800c3c1b3000041eb0071c0b30013
:10149c004ffd070069004700c3c1b30092c0b30001
:1014ac0001c1b3004afd07007a004700c3c1b30075
:1014bc00d2c1b30041c1b30045fd07000040eb00b1
:1014cc00004f7800080037001e80fb008e1890003b
:1014dc00008040009e80fb008100470091409000fe
:1014ec00014878001e4fe8001e407800e64f50007f
:1014fc00f5ff36000040eb00004f78000900370084
:10150c001e80fb00680040008e1890000080400098
:10151c009e80fb00810047009148900001487800b4
:10152c001e4fe8001e407800ef4f5000f4ff3600cd
:10153c000040eb00004f7800090037001e80fb00d4
:10154c007d0040008e189000008040009e80fb00c3
:10155c0081004700a1589000014878001e4fe80018
:10156c001e407800f34f5000f4ff3600090037009e
:10157c00f0952000904078000096200010407800f4
:10158c00c3c1b30001417800804078000e18900070
:10159c000ffd07000080fa00000006000200fa00b0
:1015ac00004f78001e407800e14f50001f003a00b9
:1015bc00a1c2b30040c0b3009500070011c2b30034
:1015cc0050c1b3009200070031c2b300c0c0b300d9
:1015dc008f00070041c2b300c0c0b3008c000700ed
:1015ec0051c2b300c0c0b3008900070061c2b30090
:1015fc0000c5b3008600070071c2b30000cfb30072
:10160c0083000700d1c2b30080c0b3008000070084
:10161c00e1c2b30080c0b3007d000700a1c2b300db
:10162c0050c0b3007a00070009003700a1c2b30014
:10163c0040c0b30076000700d1c2b3000040eb00fd
:10164c0073000700a1c2b30050c0b30070000700c4
:10165c000080fa00000006000200fa00004f78003b
:10166c009e40780061c060000080fb00610060005b
:10167c00511680000100a100010070005016880076
:10168c000080fa0000000600cc00fa00e2004700df
:10169c00600009008018eb008058eb008e00780089
:1016ac00510cb000060009008058eb000040eb0024
:1016bc00004f780022003700e095200011c0b300e5
:1016cc00014878000096200061c0b3000148780002
:1016dc00f095200011c0b30001487800500c200098
:1016ec000e00400055ff07000040eb00104798002b
:1016fc000f0037001e80fb006600b90080007800e8
:10170c001e4090000080fb00008040009e40900036
:10171c008180fb0081004700d1c091000000470090
:10172c00214098001e4090000040e80010479800af
:10173c001e409000e54f5000eeff36001e4fe800b3
:10174c001e407800ff4f5000dbff36000e80e80093
:10175c00048220008001780042c4b30001ccb300a5
:10176c00e0cfb300edfc07000080fa00000006009b
:10177c000800fa00e1004700060009008058eb0061
:10178c00e095200011c0b3000148780000962000bd
:10179c0061c0b30001487800f095200011c0b3007f
:1017ac00014878000e00e80024ff07000040eb0021
:1017bc00004f7800110037008180200091407800a4
:1017cc0070c7b30080cf500001003a000868ef00ea
:1017dc0008c8bf000040e80008e8b70008c8bf0010
:1017ec000080fb009e80fb008100470011419000af
:1017fc00418e2000827078001e4fe8001e40780059
:10180c00e54f5000ecff36000080fa0000000600a7
:10181c000200fa00004f7800114798009dfc070069
:10182c008040eb00c0c1b30009fc07001e409000d3
:10183c0013fc07001e40780011fc07000642a800ac
:10184c000000000030108000640060000000e00028
:10185c00fcff3a000080fa00000006000200fa00cb
:10186c00c3c1b300d2c0b30011c0b3000e007800e6
:10187c0057fc07001e4078000080fa0000000600ac
:020000040000fa
:10188c000c080000560100000000000000080000d9
:10189c000a000000000000000a080000020000001e
:0c18ac000200000002000000000000002c
:020000040000fa
:0200000401f009
:04000c008000000070
:020000040000fa
:0200000401f009
:040010006500000087
:020000040000fa
:0200000401f009
:040014005f00000089
:020000040000fa
:0200000401f009
:04001800e7000000fd
:020000040000fa
:0200000401f009
:04001c00c20000001e
:00000001FF
