:020000040000fa
:080000000002040000000000f2
:020000040000fa
:0400080034030000bd
:020000040000fa
:04000c0034030000b9
:020000040000fa
:0400100034030000b5
:020000040000fa
:0400140034030000b1
:020000040000fa
:0400180034030000ad
:020000040000fa
:04001c0034030000a9
:020000040000fa
:0400200034030000a5
:020000040000fa
:0400240034030000a1
:020000040000fa
:04002800340300009d
:020000040000fa
:04002c003403000099
:020000040000fa
:040030003403000095
:020000040000fa
:040034003403000091
:020000040000fa
:04003800340300008d
:020000040000fa
:04003c003403000089
:020000040000fa
:040040003403000085
:020000040000fa
:040044003403000081
:020000040000fa
:04004800d8020000da
:020000040000fa
:04004c003403000079
:020000040000fa
:040050003403000075
:020000040000fa
:04005400fa020000ac
:020000040000fa
:04005800340300006d
:020000040000fa
:04005c003403000069
:020000040000fa
:040060003403000065
:020000040000fa
:040064003403000061
:020000040000fa
:04006800340300005d
:020000040000fa
:04006c003403000059
:020000040000fa
:040070003403000055
:020000040000fa
:040074003403000051
:020000040000fa
:04007800340300004d
:020000040000fa
:04007c003403000049
:020000040000fa
:040080003403000045
:020000040000fa
:040084003403000041
:020000040000fa
:04008800340300003d
:020000040000fa
:04008c003403000039
:020000040000fa
:040090003403000035
:020000040000fa
:040094003403000031
:020000040000fa
:04009800340300002d
:020000040000fa
:04009c003403000029
:020000040000fa
:0400a0003403000025
:020000040000fa
:0400a4003403000021
:020000040000fa
:0400a800340300001d
:020000040000fa
:0400ac003403000019
:020000040000fa
:0400b0003403000015
:020000040000fa
:0400b4003403000011
:020000040000fa
:0400b800340300000d
:020000040000fa
:0400bc003403000009
:020000040000fa
:0400c0003403000005
:020000040000fa
:0400c4003403000001
:020000040000fa
:0400c80034030000fd
:020000040000fa
:0400cc0034030000f9
:020000040000fa
:0400d00034030000f5
:020000040000fa
:0400d40034030000f1
:020000040000fa
:0400d80034030000ed
:020000040000fa
:0400dc0034030000e9
:020000040000fa
:0400e00034030000e5
:020000040000fa
:0400e40034030000e1
:020000040000fa
:0400e80034030000dd
:020000040000fa
:0400ec0034030000d9
:020000040000fa
:0400f00034030000d5
:020000040000fa
:0400f40034030000d1
:020000040000fa
:0400f80034030000cd
:020000040000fa
:0400fc0034030000c9
:020000040000fa
:0401000034030000c4
:020000040000fa
:0401040034030000c0
:020000040000fa
:0401080034030000bc
:020000040000fa
:04010c0034030000b8
:020000040000fa
:0401100034030000b4
:020000040000fa
:0401140034030000b0
:020000040000fa
:0401180034030000ac
:020000040000fa
:04011c0034030000a8
:020000040000fa
:0401200034030000a4
:020000040000fa
:0401240034030000a0
:020000040000fa
:04012800340300009c
:020000040000fa
:04012c003403000098
:020000040000fa
:040130003403000094
:020000040000fa
:040134003403000090
:020000040000fa
:04013800340300008c
:020000040000fa
:04013c003403000088
:020000040000fa
:040140003403000084
:020000040000fa
:040144003403000080
:020000040000fa
:04014800340300007c
:020000040000fa
:04014c003403000078
:020000040000fa
:040150003403000074
:020000040000fa
:040154003403000070
:020000040000fa
:04015800340300006c
:020000040000fa
:04015c003403000068
:020000040000fa
:040160003403000064
:020000040000fa
:040164003403000060
:020000040000fa
:0402080034030000bb
:020000040000fa
:04020c0034030000b7
:020000040000fa
:0402100034030000b3
:020000040000fa
:0402140034030000af
:020000040000fa
:0402180034030000ab
:020000040000fa
:04021c0034030000a7
:020000040000fa
:0402200034030000a3
:020000040000fa
:04022400340300009f
:020000040000fa
:04022800340300009b
:020000040000fa
:04022c003403000097
:020000040000fa
:040230003403000093
:020000040000fa
:04023400340300008f
:020000040000fa
:04023800340300008b
:020000040000fa
:04023c003403000087
:020000040000fa
:040240003403000083
:020000040000fa
:04024400340300007f
:020000040000fa
:04024800340300007b
:020000040000fa
:04024c003403000077
:020000040000fa
:040250003403000073
:020000040000fa
:04025400340300006f
:020000040000fa
:04025800340300006b
:020000040000fa
:04025c003403000067
:020000040000fa
:040260003403000063
:020000040000fa
:04026400340300005f
:020000040000fa
:04026800340300005b
:020000040000fa
:04026c003403000057
:020000040000fa
:040270003403000053
:020000040000fa
:04027400340300004f
:020000040000fa
:04027800340300004b
:020000040000fa
:04027c003403000047
:020000040000fa
:040280003403000043
:020000040000fa
:04028400340300003f
:020000040000fa
:04028800340300003b
:020000040000fa
:04028c003403000037
:020000040000fa
:040290003403000033
:020000040000fa
:04029400340300002f
:020000040000fa
:04029800340300002b
:020000040000fa
:04029c003403000027
:020000040000fa
:0402a0003403000023
:020000040000fa
:0402a400340300001f
:020000040000fa
:0402a800340300001b
:020000040000fa
:0402ac003403000017
:020000040000fa
:0402b0003403000013
:020000040000fa
:0402b400340300000f
:020000040000fa
:0402b800340300000b
:020000040000fa
:0402bc003403000007
:020000040000fa
:0402c0003403000003
:020000040000fa
:0402c40034030000ff
:020000040000fa
:0402c80034030000fb
:020000040000fa
:0402cc0034030000f7
:020000040000fa
:0402d00034030000f3
:020000040000fa
:0402d40034030000ef
:020000040000fa
:0402d80034030000eb
:020000040000fa
:0402dc0034030000e7
:020000040000fa
:0402e00034030000e3
:020000040000fa
:0402e40034030000df
:020000040000fa
:0402e80034030000db
:020000040000fa
:0402ec0034030000d7
:020000040000fa
:0402f00034030000d3
:020000040000fa
:0402f40034030000cf
:020000040000fa
:0402f80034030000cb
:020000040000fa
:0402fc0034030000c7
:020000040000fa
:0403000034030000c2
:020000040000fa
:0403040034030000be
:020000040000fa
:0403080034030000ba
:020000040000fa
:04030c0034030000b6
:020000040000fa
:0403100034030000b2
:020000040000fa
:0403140034030000ae
:020000040000fa
:0403180034030000aa
:020000040000fa
:04031c0034030000a6
:020000040000fa
:0403200034030000a2
:020000040000fa
:04032400340300009e
:020000040000fa
:04032800340300009a
:020000040000fa
:04032c003403000096
:020000040000fa
:040330003403000092
:020000040000fa
:04033400340300008e
:020000040000fa
:04033800340300008a
:020000040000fa
:04033c003403000086
:020000040000fa
:040340003403000082
:020000040000fa
:04034400340300007e
:020000040000fa
:04034800340300007a
:020000040000fa
:04034c003403000076
:020000040000fa
:040350003403000072
:020000040000fa
:04035400340300006e
:020000040000fa
:04035800340300006a
:020000040000fa
:04035c003403000066
:020000040000fa
:040360003403000062
:020000040000fa
:04036400340300005e
:020000040000fa
:10040000cf8120000e7f22000e0188000000000036
:10041000000020000000e000020032000001200087
:10042000200288000e000700608c200001002000e0
:10043000810f700001003200220007000000200040
:100440000000e00002003200000002000000000096
:1004500038050200000000000040da000000fe0045
:100460004440a900000020000000e000030032002a
:1004700000002000a00188004440a8000000060001
:10048000f03fb1000180b10006003500ee03090025
:1004900000000000403fb1000180b100fbff3d00c3
:1004a0001000b000203fb0000200350000800900bd
:1004b00000000000000006008a1f78008b1f7800f3
:1004c0000000060091018800800478000000eb0025
:1004d0001a003700e284440032a0b4009905ba0043
:1004e000e284440032a0b4009906ba00e2844400d9
:1004f00032a0b4000006eb00476fde00fd07b2003b
:10050000636ce10003003a00ebff07000000eb0022
:100510000a003700606ce10004003a00005deb0067
:100520008b05e900fdff3e00040037006168e10033
:10053000010032000086eb000b00070019c7ba006b
:100540001905ba000e04e00003003a000a00e000ba
:10055000e0ff3a0000000600fe07b2009e0188009e
:100560008a047800f5ff3700395dba008b05e90091
:100570000c003200295dba008b05e900080032004a
:100580000c00e00003003a00e284440032a0b40012
:10059000f5ff370019ddba008b05e900faff3a00d4
:1005a0008904e800e184440032a0b40000000600a1
:1005b000809fbe000000fa008500a9005080200046
:1005c0009040780000c8bf0080cf500003003a0080
:1005d00010c0b30002e8b7000068ef0013e1a90003
:1005e00010042000201188000080fa004f00be0097
:1005f00000400600809fbe00821f78000200fa00c3
:1006000030118000004f78008560a9000a21ef00ba
:1006100013e1a8001e407800e34f400006003a00b6
:1006200010c0b30000e8b70040802000d1cfb30075
:10063000014878000800370000c8bf000080fb00b8
:10064000418020001e4178008270780000c8bf0001
:100650000040e80000e8b7000080fa004f01780091
:100660004f00be00004006000040da000000fe001f
:020000040000fa
:100670000400fa0020479800314798002e4090006f
:1006800000404000804078003e40900000cf400095
:100690001e407800020007000080fa0000000600fb
:1006a0000200fa00004f78000000000040108000b7
:1006b000610060000000e000fcff3a008620a90015
:1006c0001e80fb0010108800000000004110800018
:1006d00000002800008060000000e000fbff3a00fe
:1006e0000000000030048000620060000000e000b4
:1006f000fcff3a00000000004110800000002400d0
:10070000008060000000e000fbff3a000080fa007b
:10071000000006000800fa00100798004147980002
:1007200052479800634798008040eb006e4090006d
:10073000cfff07005e409000d9ff07000040eb00ac
:10074000004f7800060037001e80fb009e009000de
:100750000080400010407800d1ff07001e4fe800e5
:100760004e4090009e40780080cf5000f6ff390048
:10077000540007000080fa00000006000400fa00a0
:10078000204798008620a9000662a800000000000b
:1007900030048000620060000000e000fcff3a00ce
:1007a0008620a90000000000401080006200600068
:1007b0000000e000fcff320000108000004f7800d5
:1007c0002e409000e14f500001003a003d0007002c
:1007d0001e4078000080fa00000006000800fa00c1
:1007e000881f7800100798004147980052479800ea
:1007f000634798002a0007008040eb006e4090009d
:100800009bff07005e409000a5ff07003d0007002a
:1008100011c0b3006e40900095ff07000040eb0050
:10082000004f78000040eb00004f780014003700c4
:100830001e80fb009e009000008440000040eb0002
:10084000ceff0700004c78009e80fb004e409000d9
:100850000080fb000000e900808f5000070032009c
:1008600006a2a9000682a800000000003010800047
:10087000700060000000e000fcff3a001e4fe8003e
:100880004e4090009e40780080cf5000e8ff390035
:100890000c0007004f0478000080fa0000000600fa
:1008a0000000fa000602a8000000000030108000de
:1008b000610060000000e000fcff3a000080fa00e8
:1008c000000006000000fa0006a2a8000682a800a8
:1008d0000000000030108000700060000000e000a8
:1008e000fcff3a000642a800000000003010800023
:1008f000640060000000e000fcff3a000080fa00a5
:10090000000006000000fa000622a8000000000017
:1009100030108000620060000000e000fcff3a0040
:100920000080fa00000006000a00fa002047980044
:1009300031479800424798003307980044079800d1
:100940003e40900063404000104798000040eb009c
:10095000004f78001f0037001e80fb00e10f5000a1
:1009600008003200e20f50000b0032000000e000ef
:100970000e003a004e009000ae4090000148780012
:10098000130037004e0090000000e8009e409000e9
:10099000014878000e0037004e0090000080e8000b
:1009a000ce40900001487800090037001e80fb000f
:1009b000ce009000008040009e80fb00e38050004d
:1009c0003e0190008100410091407800014878008c
:1009d0001e4fe8001e4090009e40780080cf5000df
:1009e000ddff39000080fa00000006000800fa0070
:1009f0001007980021079800320798001e00900009
:100a00000000e80010407800634050001047980054
:100a10001e0090000080e800904078003e009000aa
:100a2000014878000040eb00004f78000a003700d2
:100a30001e80fb00ae009000008040009e80fb0006
:100a4000e38040001e019000810041009140780049
:100a5000014878001e4fe8001e4090009e4078003c
:100a600080cf5000f2ff39000080fa00000006003d
:100a70008400fa0044000700780007006f000700b8
:100a80008b000700b00007007d0007000040eb006e
:100a9000004f78000040eb0010479800e20047004c
:100aa0001d0009008018eb008e007800e103b00003
:100ab000220009008018eb0002c8bf000080fb0084
:100ac000e20f500017003200e20f500005003c001a
:100ad0000000e00008003200e10f50000700320083
:100ae00026003700e30f50001f003200e40f5000d3
:100af0002100320021003700220037008e00e8007c
:100b00000e80e8000101780080007800408020001d
:100b1000b6ff07009e4090000e80e800920007009c
:100b2000180037009e40900090812000104078000f
:100b3000e30320008e8141000e81e800030278006b
:100b4000820178000141780080407800e0cfb30056
:100b500075ff0700e00320000e0040000f010700b2
:100b6000e3000700070037000e80e800f3000700ed
:100b7000e300070003003700020037000268ef00bf
:100b8000cdff3700ccff37000000fa0080022000c4
:100b9000303a8800213a8000f0f32f000080600096
:100ba000203a8800213a800000fe2f00008060007b
:100bb000203a88003200200080072000a109200090
:100bc0003374200080497800814978008249780098
:100bd0001200200060042000710520002374200012
:100be000804978008149780082497800000000003f
:100bf000113a800000002700808060000000230080
:100c0000808f5000faff3a0000000000113a800087
:100c100000022000008060000000e000fbff3200c6
:100c200060042000103a880070052000103a880007
:100c300042c7a9000080fa00000006000000fa0088
:100c40000080eb00601988000080eb0060198800cc
:100c5000c802a9000080fa00000006000000fa00a7
:100c6000d00520002010880007e2a8008600a90017
:100c70000722a8000762a9000080fa000000060011
:100c80000000fa0006ff07008040eb00c0c1b3007f
:100c900077fe0700a0c2b30081fe070090c0b3003a
:100ca0007ffe070007ff07000080fa000000060033
:100cb0000000fa002135800000fe2f000080600057
:100cc0000030a0002035880031368000f00f2e0063
:100cd0008080600000302000010070003036880005
:100ce000100820004011880023e2a80021e2a8009b
:100cf0009560a8002342a800009620000100200073
:100d0000dffd07008580a9008560a9000080fa004a
:100d1000000006000000fa00c3c1b30092c0b30097
:100d200011c0b300000820007afe0700c3c1b30061
:100d3000d2c2b30011c0b3000004200075fe07004a
:100d40000080fa00000006000000fa000080eb00be
:100d5000700888000a21ef008500a9009500a8000e
:100d60000080fa00000006000400fa00000f78007e
:100d70002147980030c0b30002e8b7002e40900031
:100d80000080fb006101b900f0fb2f00f1ff2f0094
:100d900002004000838048009200200003002000f1
:100da000820f5000838f58004f003e00006001000a
:100db00009003700120037001b00370025003700fc
:100dc00027003700290037002b0037002e0037009e
:100dd000310037003a0037008081200011c0b30095
:100de000014878009081200021c3b30001487800b9
:100df000a08120008040eb00014878003a003700d5
:100e00008081200011c0b30001487800908120004b
:100e100061c0b30001487800a081200011c0b30078
:100e20000148780030003700808120008040eb00ce
:100e3000014878009081200011c0b300014878007b
:100e40001e00e80090407800a08120000148780052
:100e500025003700afff07000268ef0022003700cf
:100e600040c0b30002e8b7001f00370040c0b30025
:100e700002e8b7001c00370010c0b300b70007003d
:100e80000268ef00180037000040eb00b3000700d5
:100e90000268ef0014003700808120008040eb00e2
:100ea00001487800908120008040eb0001487800e4
:100eb000a08120008040eb00014878000a00370044
:100ec000808120008040eb00014878009081200064
:100ed0008040eb0001487800a08120008040eb00ba
:100ee00001487800000000000080fa0000000600c1
:100ef0000000fa000268ef000080fa00000006001f
:100f00000000fa0080812000104078000080fb0083
:100f10000000e00005003200e10f500005003a003b
:100f200020c0b30002e8b700020037000268ef00fb
:100f3000000000000080fa00000006000200fa0035
:100f4000000f780080812000104078000080fb00b6
:100f50000000e00005003200e10f50000d003a00f3
:100f60001e007800230007000a003700a08120003f
:100f7000904078009081200010407800c3c1b300f9
:100f800001417800804078001e007800e1fd0700f4
:100f9000000000000080fa00000006000400fa00d3
:100fa000100798000040eb00004f78000a0037005f
:100fb0001e80fb009e0090000080400010407800e2
:100fc0000080fb002011880000502300c100200099
:100fd0002bfd07001e4fe8001e0090000000e800f7
:100fe000104078009e4f5000f1ff3e000080fa0054
:100ff000000006003200fa00001f980090812000d7
:101000009040780020c3b30080cf500048003a00e1
:101010003003200020118800e1004700070009008c
:101020008058eb00e9004700100009008058eb00f1
:10103000fa004700090009008018eb008058eb0017
:101040000e00e800c3c1b3000041eb0071c0b30063
:10105000e2fd070069004700c3c1b30092c0b300be
:1010600001c1b300ddfd07007a004700c3c1b30032
:10107000d2c1b30041c1b300d8fd07000040eb006e
:10108000004f7800080037001e80fb008e1890008b
:10109000008040009e80fb0081004700914090004e
:1010a000014878001e4fe8001e407800e64f5000cf
:1010b000f5ff36000040eb00004f780009003700d4
:1010c0001e80fb00690040008e18900000804000e8
:1010d0009e80fb0081004700914890000148780005
:1010e0001e4fe8001e407800ef4f5000f4ff36001e
:1010f0000040eb00004f7800090037001e80fb0025
:101100007d0040008e189000008040009e80fb0013
:1011100081004700a1589000014878001e4fe80068
:101120001e407800f34f5000f4ff360009003700ee
:10113000a08120009040780090812000104078002d
:10114000c3c1b30001417800804078000e189000c0
:10115000a2fd07000080fa00000006000200fa006d
:10116000004f78009e40780061c060000080fb0066
:1011700061006000511680000100a10001007000b4
:0c118000501688000080fa0000000600f5
:020000040000fa
:10118c000408000018000000000000000008000027
:0c119c0004000000000000000000000043
:020000040000fa
:0200000401f009
:04000c008000000070
:020000040000fa
:0200000401f009
:040010006500000087
:020000040000fa
:0200000401f009
:040014005f00000089
:020000040000fa
:0200000401f009
:04001800e7000000fd
:020000040000fa
:0200000401f009
:04001c00c20000001e
:00000001FF
