:020000040000fa
:080000000002040000000000f2
:020000040000fa
:040008009003000061
:020000040000fa
:04000c00900300005d
:020000040000fa
:040010009003000059
:020000040000fa
:040014009003000055
:020000040000fa
:040018009003000051
:020000040000fa
:04001c00900300004d
:020000040000fa
:040020009003000049
:020000040000fa
:040024009003000045
:020000040000fa
:040028009003000041
:020000040000fa
:04002c00900300003d
:020000040000fa
:040030009003000039
:020000040000fa
:040034009003000035
:020000040000fa
:040038009003000031
:020000040000fa
:04003c00900300002d
:020000040000fa
:040040009003000029
:020000040000fa
:040044002e03000087
:020000040000fa
:04004800d8020000da
:020000040000fa
:04004c00900300001d
:020000040000fa
:040050009003000019
:020000040000fa
:040054005003000055
:020000040000fa
:040058009003000011
:020000040000fa
:04005c00900300000d
:020000040000fa
:040060009003000009
:020000040000fa
:040064009003000005
:020000040000fa
:040068009003000001
:020000040000fa
:04006c0090030000fd
:020000040000fa
:0400700090030000f9
:020000040000fa
:0400740090030000f5
:020000040000fa
:0400780090030000f1
:020000040000fa
:04007c0090030000ed
:020000040000fa
:0400800090030000e9
:020000040000fa
:0400840090030000e5
:020000040000fa
:0400880090030000e1
:020000040000fa
:04008c0090030000dd
:020000040000fa
:0400900090030000d9
:020000040000fa
:0400940090030000d5
:020000040000fa
:04009800f60200006c
:020000040000fa
:04009c0090030000cd
:020000040000fa
:0400a00090030000c9
:020000040000fa
:0400a40090030000c5
:020000040000fa
:0400a80090030000c1
:020000040000fa
:0400ac0090030000bd
:020000040000fa
:0400b00090030000b9
:020000040000fa
:0400b40090030000b5
:020000040000fa
:0400b80090030000b1
:020000040000fa
:0400bc0090030000ad
:020000040000fa
:0400c00090030000a9
:020000040000fa
:0400c40090030000a5
:020000040000fa
:0400c80090030000a1
:020000040000fa
:0400cc00900300009d
:020000040000fa
:0400d0009003000099
:020000040000fa
:0400d4009003000095
:020000040000fa
:0400d8009003000091
:020000040000fa
:0400dc00900300008d
:020000040000fa
:0400e0009003000089
:020000040000fa
:0400e4009003000085
:020000040000fa
:0400e8009003000081
:020000040000fa
:0400ec00900300007d
:020000040000fa
:0400f0009003000079
:020000040000fa
:0400f4009003000075
:020000040000fa
:0400f8009003000071
:020000040000fa
:0400fc00900300006d
:020000040000fa
:040100009003000068
:020000040000fa
:040104009003000064
:020000040000fa
:040108009003000060
:020000040000fa
:04010c00900300005c
:020000040000fa
:040110009003000058
:020000040000fa
:040114009003000054
:020000040000fa
:040118009003000050
:020000040000fa
:04011c00900300004c
:020000040000fa
:040120009003000048
:020000040000fa
:040124009003000044
:020000040000fa
:040128009003000040
:020000040000fa
:04012c00900300003c
:020000040000fa
:040130009003000038
:020000040000fa
:040134009003000034
:020000040000fa
:040138009003000030
:020000040000fa
:04013c00900300002c
:020000040000fa
:040140009003000028
:020000040000fa
:040144009003000024
:020000040000fa
:040148009003000020
:020000040000fa
:04014c00900300001c
:020000040000fa
:040150009003000018
:020000040000fa
:040154009003000014
:020000040000fa
:040158009003000010
:020000040000fa
:04015c00900300000c
:020000040000fa
:040160009003000008
:020000040000fa
:040164009003000004
:020000040000fa
:04020800900300005f
:020000040000fa
:04020c00900300005b
:020000040000fa
:040210009003000057
:020000040000fa
:040214009003000053
:020000040000fa
:04021800900300004f
:020000040000fa
:04021c00900300004b
:020000040000fa
:040220009003000047
:020000040000fa
:040224009003000043
:020000040000fa
:04022800900300003f
:020000040000fa
:04022c00900300003b
:020000040000fa
:040230009003000037
:020000040000fa
:040234009003000033
:020000040000fa
:04023800900300002f
:020000040000fa
:04023c00900300002b
:020000040000fa
:040240009003000027
:020000040000fa
:040244009003000023
:020000040000fa
:04024800900300001f
:020000040000fa
:04024c00900300001b
:020000040000fa
:040250009003000017
:020000040000fa
:040254009003000013
:020000040000fa
:04025800900300000f
:020000040000fa
:04025c00900300000b
:020000040000fa
:040260009003000007
:020000040000fa
:040264009003000003
:020000040000fa
:0402680090030000ff
:020000040000fa
:04026c0090030000fb
:020000040000fa
:0402700090030000f7
:020000040000fa
:0402740090030000f3
:020000040000fa
:0402780090030000ef
:020000040000fa
:04027c0090030000eb
:020000040000fa
:0402800090030000e7
:020000040000fa
:0402840090030000e3
:020000040000fa
:0402880090030000df
:020000040000fa
:04028c0090030000db
:020000040000fa
:0402900090030000d7
:020000040000fa
:0402940090030000d3
:020000040000fa
:0402980090030000cf
:020000040000fa
:04029c0090030000cb
:020000040000fa
:0402a00090030000c7
:020000040000fa
:0402a40090030000c3
:020000040000fa
:0402a80090030000bf
:020000040000fa
:0402ac0090030000bb
:020000040000fa
:0402b00090030000b7
:020000040000fa
:0402b40090030000b3
:020000040000fa
:0402b80090030000af
:020000040000fa
:0402bc0090030000ab
:020000040000fa
:0402c00090030000a7
:020000040000fa
:0402c40090030000a3
:020000040000fa
:0402c800900300009f
:020000040000fa
:0402cc00900300009b
:020000040000fa
:0402d0009003000097
:020000040000fa
:0402d4009003000093
:020000040000fa
:0402d800900300008f
:020000040000fa
:0402dc00900300008b
:020000040000fa
:0402e0009003000087
:020000040000fa
:0402e4009003000083
:020000040000fa
:0402e800900300007f
:020000040000fa
:0402ec00900300007b
:020000040000fa
:0402f0009003000077
:020000040000fa
:0402f4009003000073
:020000040000fa
:0402f800900300006f
:020000040000fa
:0402fc00900300006b
:020000040000fa
:040300009003000066
:020000040000fa
:040304009003000062
:020000040000fa
:04030800900300005e
:020000040000fa
:04030c00900300005a
:020000040000fa
:040310009003000056
:020000040000fa
:040314009003000052
:020000040000fa
:04031800900300004e
:020000040000fa
:04031c00900300004a
:020000040000fa
:040320009003000046
:020000040000fa
:040324009003000042
:020000040000fa
:04032800900300003e
:020000040000fa
:04032c00900300003a
:020000040000fa
:040330009003000036
:020000040000fa
:040334009003000032
:020000040000fa
:04033800900300002e
:020000040000fa
:04033c00900300002a
:020000040000fa
:040340009003000026
:020000040000fa
:040344009003000022
:020000040000fa
:04034800900300001e
:020000040000fa
:04034c00900300001a
:020000040000fa
:040350009003000016
:020000040000fa
:040354009003000012
:020000040000fa
:04035800900300000e
:020000040000fa
:04035c00900300000a
:020000040000fa
:040360009003000006
:020000040000fa
:040364009003000002
:020000040000fa
:10040000ef8920000e7f22000e018800000000000e
:10041000000020000000e000020032000001200087
:10042000200288000e00070000bc20000100200010
:10043000810f700001003200220007000000200040
:100440000000e00002003200000002000000000096
:10045000a4050200000000000040da000000fe00d9
:100460004440a900000020000000e000030032002a
:1004700000002000a00188004440a8000000060001
:10048000f03fb1000180b10006003500ee03090025
:1004900000000000403fb1000180b100fbff3d00c3
:1004a0001000b000203fb0000200350000800900bd
:1004b00000000000000006008a1f78008b1f7800f3
:1004c0000000060091018800800478000000eb0025
:1004d0001a003700e284440032a0b4009905ba0043
:1004e000e284440032a0b4009906ba00e2844400d9
:1004f00032a0b4000006eb00476fde00fd07b2003b
:10050000636ce10003003a00ebff07000000eb0022
:100510000a003700606ce10004003a00005deb0067
:100520008b05e900fdff3e00040037006168e10033
:10053000010032000086eb000b00070019c7ba006b
:100540001905ba000e04e00003003a000a00e000ba
:10055000e0ff3a0000000600fe07b2009e0188009e
:100560008a047800f5ff3700395dba008b05e90091
:100570000c003200295dba008b05e900080032004a
:100580000c00e00003003a00e284440032a0b40012
:10059000f5ff370019ddba008b05e900faff3a00d4
:1005a0008904e800e184440032a0b40000000600a1
:1005b000809fbe000000fa008500a900d0802000c6
:1005c0009040780001c8bf0080cf500002003a0080
:1005d00010c0b30003e8b7000168ef0013e1a90001
:1005e0000080fa004f00be0000400600809fbe0061
:1005f0000000fa001821ef008780a90005c8bf009d
:10060000f44f50000f003a0030c0b30003e8b700c9
:100610000568ef00a089200011c0b30001487800f0
:10062000c089200061c0b30001487800b089200073
:1006300011c0b3000148780050c4b30007e8b70008
:100640000300370005c8bf000040e80005e8b70018
:100650000080fa004f00be0000400600801f7800b6
:100660000000fa000621ef0084e0a90006c8bf00e0
:10067000f44f500004003a000668ef0050c0b30089
:1006800003e8b7000300370006c8bf000040e800d9
:1006900006e8b7000080fa004f007800004006002e
:1006a000809fbe00821f78000200fa003011800097
:1006b000004f78008560a9000a21ef0001c8bf0043
:1006c0000004e00009003a001e407800e34f4000bb
:1006d0000e003a0010c0b30001e8b700c08020004f
:1006e000d1cfb300014878000800370001c8bf002f
:1006f0000080fb00c18020001e41780082707800dd
:1007000001c8bf000040e80001e8b70013e1a800fd
:100710000080fa004f0178004f00be000040060044
:080720000040da000000fe00b9
:020000040000fa
:100728000400fa0020479800314798002e409000b6
:1007380000404000804078003e40900000cf4000dc
:100748001e407800020007000080fa000000060042
:100758000200fa00004f78000000000040108000fe
:10076800610060000000e000fcff3a008620a9005c
:100778001e80fb001010880000000000411080005f
:1007880000002800008060000000e000fbff3a0045
:100798000000000030048000620060000000e000fb
:1007a800fcff3a0000000000411080000000240017
:1007b800008060000000e000fbff3a000080fa00c3
:1007c800000006000800fa0010079800414798004a
:1007d80052479800634798008040eb006e409000b5
:1007e800cfff07005e409000d9ff07000040eb00f4
:1007f800004f7800060037001e80fb009e00900026
:100808000080400010407800d1ff07001e4fe8002c
:100818004e4090009e40780080cf5000f6ff39008f
:100828000642a8000000000030108000640060004c
:100838000000e000fcff3a000080fa00000006001b
:100848000400fa00204798008620a9000662a80044
:100858000000000030048000620060000000e0003a
:10086800fcff3a008620a90000000000401080002c
:10087800620060000000e000fcff32000010800011
:10088800004f78002e409000e14f500001003a00e0
:10089800400007001e4078000080fa0000000600b3
:1008a8000800fa00881f7800100798004147980050
:1008b80052479800634798002d0007008040eb00de
:1008c8006e40900096ff07005e409000a0ff070072
:1008d8004000070011c0b3006e40900090ff070071
:1008e8000040eb00004f78004e419000018020004e
:1008f800824878000040eb00004f78001400370071
:100908001e80fb009e009000008440000040eb0029
:10091800cbff0700004c78009e80fb004e40900003
:100928000080fb000000e900808f500007003200c3
:1009380006a2a9000682a80000000000301080006e
:10094800700060000000e000fcff3a001e4fe80065
:100958004e4090009e40780080cf5000e8ff39005c
:100968000c0007004f0478000080fa000000060021
:100978000000fa000602a800000000003010800005
:10098800610060000000e000fcff3a000080fa000f
:10099800000006000000fa0006a2a8000682a800cf
:1009a8000000000030108000700060000000e000cf
:1009b800fcff3a000642a80000000000301080004a
:1009c800640060000000e000fcff3a000080fa00cc
:1009d800000006000000fa000622a800000000003f
:1009e80030108000620060000000e000fcff3a0068
:1009f8000080fa00000006000a00fa00204798006c
:100a080031479800424798003307980044079800f8
:100a18003e40900063404000104798000040eb00c3
:100a2800004f78001f0037001e80fb00e10f5000c8
:100a380008003200e20f50000b0032000000e00016
:100a48000e003a004e009000ae4090000148780039
:100a5800130037004e0090000000e8009e40900010
:100a6800014878000e0037004e0090000080e80032
:100a7800ce40900001487800090037001e80fb0036
:100a8800ce009000008040009e80fb00e380500074
:100a98003e019000810041009140780001487800b3
:100aa8001e4fe8001e4090009e40780080cf500006
:100ab800ddff39000080fa00000006000800fa0097
:100ac8001007980021079800320798001e00900030
:100ad8000000e8001040780063405000104798007c
:100ae8001e0090000080e800904078003e009000d2
:100af800014878000040eb00004f78000a003700fa
:100b08001e80fb00ae009000008040009e80fb002d
:100b1800e38040001e019000810041009140780070
:100b2800014878001e4fe8001e4090009e40780063
:100b380080cf5000f2ff39000080fa000000060064
:100b48008400fa007a000700b4000700a500070037
:100b5800c7000700f70007000040eb00004f7800cf
:100b68000040eb0010479800e20047001d00090014
:100b78008018eb008e007800e103b0002200090025
:100b88008018eb00f3020700004f7800ca02a900a2
:100b98001e407800fa4f500003003a0000c0eb00f6
:100ba80002e8b700a60007003180200091407800d5
:100bb80002c8bf0000c060000080fb00e20f5000c8
:100bc8003c003200e20f500005003c000000e0004d
:100bd8000a003200e10f50002c00320051003700ab
:100be800e40f500049003200e40f50004300350084
:100bf800e50f5000480032004a0037005cff07004c
:100c08008040eb00c0c1b300c5fe07000040eb0008
:100c1800cffe07006fff070011c0b300c0c1b300cb
:100c2800bffe070010c0b30005ff0700004f7800a3
:100c380000cab3009e40780080cf500012003a00ee
:100c48000ac8bf000080fb000000e000010032007d
:100c58000d0037003e020700a1c2b3000040eb00c0
:100c6800a902070091c0b3000040eb00a6020700ec
:100c7800a1c2b30010c0b300a302070020c0b30094
:100c88000ae8b70000000000280037000e80e800de
:100c98007280200080007800c080200087ff070055
:100ca80071802000914078000e80e800b3000700b2
:100cb8001e0037007180200091407800c089200014
:100cc80010407800e30320008e8141000e81e80087
:100cd80003027800820178000141780080407800a2
:100ce800e0cfb30044ff0700e00320000e004000ff
:100cf8004e010700fe0007000c0037000e80e800d8
:100d080016010700fe00070008003700660107000b
:100d18000a01070005003700530207000b0107000e
:100d2800020037000368ef009fff37009eff37007f
:100d38000000fa0080022000303a8800213a800042
:100d4800f0f32f0000806000203a8800213a8000ec
:100d580000fe2f0000806000203a8800320020004a
:100d680080072000a1092000337420008049780002
:100d78008149780082497800120020006004200030
:100d8800710520002374200080497800814978008b
:100d98008249780000000000113a80000000270016
:100da8008080600000002300808f5000faff3a0026
:100db80000000000113a800000022000008060005e
:100dc8000000e000fbff320060042000103a8800b9
:100dd80070052000103a880042c7a9000080fa0078
:100de800000006000000fa000080eb00601988008f
:100df8000080eb0060198800c802a9000134800057
:100e0800f00f2e000080600000a0a00000348800d1
:100e18008680a9000080fa00000006000000fa00a1
:100e2800d00520002010880007e2a8008600a9004d
:100e38000722a8000762a9000080fa000000060047
:100e48000000fa00a1c2b3000040eb002e02070028
:100e5800d1c2b3000040eb002b020700a1c2b300cf
:100e680010c0b300280207000080fa000000060046
:100e78000000fa0021068000f0f82f008080600052
:100e8800000620000100700020068800213580003f
:100e980000fe2f00008060000030a0002035880090
:100ea80031368000f00f2e00808060000030200076
:100eb80001007000303688001008200040118800ba
:100ec80023e2a80021e2a8009560a8002342a80018
:100ed800009620000100200067fd07008580a9001a
:100ee8008560a9000080fa00000006000000fa00f2
:100ef800a1c2b3000040eb000302070091c0b30099
:100f080000c8b30000020700d1c2b3000040eb00e4
:100f1800fd010700e1c2b3000040eb00fa01070041
:100f2800a1c2b30010c0b300f70107000080fa00a7
:100f3800000006000000fa000080eb00700888003e
:100f48000a21ef008500a9009500a80000c4290027
:100f5800e00888001821ef008780a9009780a80082
:100f680000e22400600888000621ef0084e0a90060
:100f780094e0a8000080fa00000006000400fa00cf
:100f8800000f78002147980030c0b30003e8b7008d
:100f98002e4090000080fb006101b900f0fb2f009b
:100fa800f1ff2f00020040008380480092002000db
:100fb80003002000820f5000838f58004a003e0033
:100fc8000060010009003700120037001b003700dd
:100fd800290037002c0037002e003700300037007a
:100fe80033003700360037003b003700a089200067
:100ff80011c0b30001487800c089200021c3b300a4
:1010080001487800b08920008040eb000148780052
:1010180035003700a089200011c0b30001487800ce
:10102800c089200061c0b30001487800b089200061
:1010380011c0b300014878002b003700a0892000b8
:101048008040eb0001487800c089200011c0b3003f
:10105800014878001e00780090407800b089200090
:10106800014878001e00e800904078001e007800d3
:10107800014878001c0037009cff07000a68ef0051
:101088000368ef001800370040c0b30003e8b7005a
:101098001500370040c0b30003e8b700120037005e
:1010a80010c0b3001e0107000368ef000e003700f0
:1010b8000040eb001a0107000368ef000a00370040
:1010c80010c0b3000ae8b70010c0b300e50007007d
:1010d8000368ef00040037000040eb00e100070060
:1010e8000368ef00000000000080fa00000006001e
:1010f8000000fa000368ef000080fa000000060014
:101108000000fa00a0892000104078000080fb0051
:101118000000e00005003200e10f500005003a0031
:1011280020c0b30003e8b700020037000368ef00ef
:10113800000000000080fa00000006000000fa002d
:101148000368ef000080fa00000006000000fa00c3
:101158000368ef000080fa00000006000200fa00b1
:10116800000f7800a0892000104078000080fb0064
:101178000000e0001b003200e10f500029003a0097
:101188000109800000002800008060000000e000e5
:101198001100320021e1a9001e0078005900070063
:1011a8009e00780066804000818020009140780091
:1011b8000148780008c8bf000040e80008e8b70008
:1011c800c089200071c0b3000148780050c4b30042
:1011d80007e8b700130037001e0078004900070031
:1011e80010003700a1c2b3000040eb004601070021
:1011f800b089200090407800c08920001040780015
:10120800c3c1b30001417800804078001e00780017
:101218006cfd0700a1c2b30010c0b3003a0107007b
:10122800000000000080fa00000006000400fa0038
:10123800100798000040eb00004f78000d003700c1
:101248001e80fb009e009000008040001040780047
:101258000080fb00201188000000000011118000b0
:1012680000202000008060000000e000fbff3a0042
:101278001e4fe8001e0090000000e80010407800b3
:101288009e4f5000eeff3e00718020009140780094
:1012980050c4b30080cf500001003a0021e1a800fb
:1012a8000080fa00000006000000fa000109800032
:1012b80000002800008060000000e000020032000a
:1012c80021e1a9000d0037001821ef000568ef00a3
:1012d8000868ef0021e1a800a089200011c0b30030
:1012e80001487800c089200061c0b3000148780037
:1012f800b089200011c0b300014878000080fa00ce
:10130800000006003200fa00001f9800c089200083
:101318009040780020c3b30080cf500046003a00c8
:10132800e1004700070009008058eb00e90047008a
:10133800100009008058eb00fa0047000900090076
:101348008018eb008058eb000e00e800c3c1b30022
:101358000041eb0071c0b30051fd07006900470070
:10136800c3c1b30092c0b30001c1b3004cfd070074
:101378007a004700c3c1b300d2c1b30041c1b30072
:1013880047fd07000040eb00004f780008003700d9
:101398001e80fb008e189000008040009e80fb009d
:1013a8008100470091409000014878001e4fe800f6
:1013b8001e407800e64f5000f5ff36000040eb0075
:1013c800004f7800090037001e80fb0068004000cd
:1013d8008e189000008040009e80fb00810047002e
:1013e80091489000014878001e4fe8001e407800a0
:1013f800ef4f5000f4ff36000040eb00004f78003c
:10140800090037001e80fb007d0040008e18900008
:10141800008040009e80fb0081004700a15890009a
:10142800014878001e4fe8001e407800f34f500036
:10143800f4ff360009003700b0892000904078009a
:10144800c089200010407800c3c1b3000141780072
:10145800804078000e18900011fd07000080fa0007
:10146800000006000200fa00004f78001e407800d5
:10147800e14f50001f003a00a1c2b3000040eb004a
:10148800a100070011c2b30050c1b3009e000700bd
:1014980031c2b300c0c0b3009b00070041c2b30013
:1014a800c0c0b3009800070051c2b300c0c0b30069
:1014b8009500070061c2b30000c5b30092000700a1
:1014c80071c2b30000cfb3008f000700d1c2b300d0
:1014d80080c0b3008c000700e1c2b30080c0b30035
:1014e80089000700a1c2b30010c0b300860007003e
:1014f80009003700a1c2b3000040eb0082000700da
:10150800d1c2b3000040eb007f000700a1c2b300c6
:1015180010c0b3007c0007000080fa00000006003d
:101528000200fa00004f78009e40780061c0600019
:101538000080fb0061006000511680000100a100de
:1015480001007000501688000080fa0000000600b4
:101558000200fa000040eb0010479800e00f20005e
:1015680020118800000000001111800000202000d8
:10157800008060000000e000fbff3a00300c200013
:1015880020118800000000001111800000202000b8
:10159800008060000000e000fbff3a0040042000eb
:1015a80020118800b089200011c0b30001487800dc
:1015b800effc07008040eb00c0c1b30058fc0700f7
:1015c800b08920001040780061fc070001fd070089
:1015d80011c0b300c0c1b30051fc07000040eb00cc
:1015e800004f7800190037000040eb0094fc07001a
:1015f80010479800f0cbb3009e40780080cf500091
:101608000800320006a2a9000682a8000000000017
:1016180030108000700060000000e000fcff3a001d
:101628000100370000000000111180000020200098
:10163800008060000000e000fbff3a001e409000c0
:101648000080fb00201188001e4fe800f0cbb3009b
:101658009e40780080cf5000e3ff3600cdfc0700a5
:101668000080fa00000006000800fa00e1004700c8
:10167800060009008058eb00a089200011c0b300c3
:1016880001487800c089200061c0b3000148780093
:10169800b089200011c0b300014878000e00e800ae
:1016a80018ff07000040eb00004f780011003700da
:1016b800918020009140780070c7b30080cf50001f
:1016c80001003a000968ef0009c8bf000040e800bf
:1016d80009e8b70009c8bf000080fb009e80fb0036
:1016e800810047001141900001822000827078003b
:1016f8001e4fe8001e407800e54f5000ecff360012
:101708000080fa00000006000200fa00004f78008e
:101718001147980096fc07008040eb00c0c1b30059
:10172800fffb07001e40900009fc07001e407800e0
:1017380007fc07000642a8000000000030108000e7
:10174800640060000000e000fcff3a000080fa003e
:10175800000006000200fa00c3c1b300d2c0b30003
:1017680011c0b3000e0078004dfc07001e40780041
:081778000080fa0000000600e9
:020000040000fa
:101780000c080000920000000000000000080000ab
:101790000a000000000000000a080000020000002b
:0c17a00002000000020000000000000039
:020000040000fa
:0200000401f009
:04000c008000000070
:020000040000fa
:0200000401f009
:040010006500000087
:020000040000fa
:0200000401f009
:040014005f00000089
:020000040000fa
:0200000401f009
:04001800e7000000fd
:020000040000fa
:0200000401f009
:04001c00c20000001e
:00000001FF
