:020000040000fa
:080000000002040000000000f2
:020000040000fa
:04000800f003000001
:020000040000fa
:04000c00f0030000fd
:020000040000fa
:04001000f0030000f9
:020000040000fa
:04001400f0030000f5
:020000040000fa
:04001800f0030000f1
:020000040000fa
:04001c00f0030000ed
:020000040000fa
:04002000f0030000e9
:020000040000fa
:04002400f0030000e5
:020000040000fa
:04002800f0030000e1
:020000040000fa
:04002c00f0030000dd
:020000040000fa
:04003000f0030000d9
:020000040000fa
:04003400f0030000d5
:020000040000fa
:04003800f0030000d1
:020000040000fa
:04003c00f0030000cd
:020000040000fa
:04004000f0030000c9
:020000040000fa
:040044003403000081
:020000040000fa
:04004800dc020000d6
:020000040000fa
:04004c00f0030000bd
:020000040000fa
:04005000f0030000b9
:020000040000fa
:04005400560300004f
:020000040000fa
:04005800f0030000b1
:020000040000fa
:04005c00f0030000ad
:020000040000fa
:04006000f0030000a9
:020000040000fa
:04006400f0030000a5
:020000040000fa
:04006800f0030000a1
:020000040000fa
:04006c00f00300009d
:020000040000fa
:04007000f003000099
:020000040000fa
:04007400f003000095
:020000040000fa
:04007800f003000091
:020000040000fa
:04007c00f00300008d
:020000040000fa
:04008000f003000089
:020000040000fa
:04008400f003000085
:020000040000fa
:04008800f003000081
:020000040000fa
:04008c00f00300007d
:020000040000fa
:04009000f003000079
:020000040000fa
:04009400f003000075
:020000040000fa
:04009800fc02000066
:020000040000fa
:04009c00f00300006d
:020000040000fa
:0400a00096030000c3
:020000040000fa
:0400a400f003000065
:020000040000fa
:0400a800f003000061
:020000040000fa
:0400ac00f00300005d
:020000040000fa
:0400b000f003000059
:020000040000fa
:0400b400f003000055
:020000040000fa
:0400b800f003000051
:020000040000fa
:0400bc00f00300004d
:020000040000fa
:0400c000f003000049
:020000040000fa
:0400c400f003000045
:020000040000fa
:0400c800f003000041
:020000040000fa
:0400cc00f00300003d
:020000040000fa
:0400d000f003000039
:020000040000fa
:0400d400f003000035
:020000040000fa
:0400d800f003000031
:020000040000fa
:0400dc00f00300002d
:020000040000fa
:0400e000f003000029
:020000040000fa
:0400e400f003000025
:020000040000fa
:0400e800f003000021
:020000040000fa
:0400ec00f00300001d
:020000040000fa
:0400f000f003000019
:020000040000fa
:0400f400f003000015
:020000040000fa
:0400f800f003000011
:020000040000fa
:0400fc00f00300000d
:020000040000fa
:04010000f003000008
:020000040000fa
:04010400f003000004
:020000040000fa
:04010800f003000000
:020000040000fa
:04010c00f0030000fc
:020000040000fa
:04011000f0030000f8
:020000040000fa
:04011400f0030000f4
:020000040000fa
:04011800f0030000f0
:020000040000fa
:04011c00f0030000ec
:020000040000fa
:04012000f0030000e8
:020000040000fa
:04012400f0030000e4
:020000040000fa
:04012800f0030000e0
:020000040000fa
:04012c00f0030000dc
:020000040000fa
:04013000f0030000d8
:020000040000fa
:04013400f0030000d4
:020000040000fa
:04013800f0030000d0
:020000040000fa
:04013c00f0030000cc
:020000040000fa
:04014000f0030000c8
:020000040000fa
:04014400f0030000c4
:020000040000fa
:04014800f0030000c0
:020000040000fa
:04014c00f0030000bc
:020000040000fa
:04015000f0030000b8
:020000040000fa
:04015400f0030000b4
:020000040000fa
:04015800f0030000b0
:020000040000fa
:04015c00f0030000ac
:020000040000fa
:04016000f0030000a8
:020000040000fa
:04016400f0030000a4
:020000040000fa
:04020800f0030000ff
:020000040000fa
:04020c00f0030000fb
:020000040000fa
:04021000f0030000f7
:020000040000fa
:04021400f0030000f3
:020000040000fa
:04021800f0030000ef
:020000040000fa
:04021c00f0030000eb
:020000040000fa
:04022000f0030000e7
:020000040000fa
:04022400f0030000e3
:020000040000fa
:04022800f0030000df
:020000040000fa
:04022c00f0030000db
:020000040000fa
:04023000f0030000d7
:020000040000fa
:04023400f0030000d3
:020000040000fa
:04023800f0030000cf
:020000040000fa
:04023c00f0030000cb
:020000040000fa
:04024000f0030000c7
:020000040000fa
:04024400f0030000c3
:020000040000fa
:04024800f0030000bf
:020000040000fa
:04024c00f0030000bb
:020000040000fa
:04025000f0030000b7
:020000040000fa
:04025400f0030000b3
:020000040000fa
:04025800f0030000af
:020000040000fa
:04025c00f0030000ab
:020000040000fa
:04026000f0030000a7
:020000040000fa
:04026400f0030000a3
:020000040000fa
:04026800f00300009f
:020000040000fa
:04026c00f00300009b
:020000040000fa
:04027000f003000097
:020000040000fa
:04027400f003000093
:020000040000fa
:04027800f00300008f
:020000040000fa
:04027c00f00300008b
:020000040000fa
:04028000f003000087
:020000040000fa
:04028400f003000083
:020000040000fa
:04028800f00300007f
:020000040000fa
:04028c00f00300007b
:020000040000fa
:04029000f003000077
:020000040000fa
:04029400f003000073
:020000040000fa
:04029800f00300006f
:020000040000fa
:04029c00f00300006b
:020000040000fa
:0402a000f003000067
:020000040000fa
:0402a400f003000063
:020000040000fa
:0402a800f00300005f
:020000040000fa
:0402ac00f00300005b
:020000040000fa
:0402b000f003000057
:020000040000fa
:0402b400f003000053
:020000040000fa
:0402b800f00300004f
:020000040000fa
:0402bc00f00300004b
:020000040000fa
:0402c000f003000047
:020000040000fa
:0402c400f003000043
:020000040000fa
:0402c800f00300003f
:020000040000fa
:0402cc00f00300003b
:020000040000fa
:0402d000f003000037
:020000040000fa
:0402d400f003000033
:020000040000fa
:0402d800f00300002f
:020000040000fa
:0402dc00f00300002b
:020000040000fa
:0402e000f003000027
:020000040000fa
:0402e400f003000023
:020000040000fa
:0402e800f00300001f
:020000040000fa
:0402ec00f00300001b
:020000040000fa
:0402f000f003000017
:020000040000fa
:0402f400f003000013
:020000040000fa
:0402f800f00300000f
:020000040000fa
:0402fc00f00300000b
:020000040000fa
:04030000f003000006
:020000040000fa
:04030400f003000002
:020000040000fa
:04030800f0030000fe
:020000040000fa
:04030c00f0030000fa
:020000040000fa
:04031000f0030000f6
:020000040000fa
:04031400f0030000f2
:020000040000fa
:04031800f0030000ee
:020000040000fa
:04031c00f0030000ea
:020000040000fa
:04032000f0030000e6
:020000040000fa
:04032400f0030000e2
:020000040000fa
:04032800f0030000de
:020000040000fa
:04032c00f0030000da
:020000040000fa
:04033000f0030000d6
:020000040000fa
:04033400f0030000d2
:020000040000fa
:04033800f0030000ce
:020000040000fa
:04033c00f0030000ca
:020000040000fa
:04034000f0030000c6
:020000040000fa
:04034400f0030000c2
:020000040000fa
:04034800f0030000be
:020000040000fa
:04034c00f0030000ba
:020000040000fa
:04035000f0030000b6
:020000040000fa
:04035400f0030000b2
:020000040000fa
:04035800f0030000ae
:020000040000fa
:04035c00f0030000aa
:020000040000fa
:04036000f0030000a6
:020000040000fa
:04036400f0030000a2
:020000040000fa
:100400002f9120000e7f22000e01880000000000c6
:10041000000020000000e000020032000001200087
:10042000200288000e000700e07e2100010020006d
:10043000810f700001003200220007000000200040
:100440000000e00002003200000002000000000096
:1004500042110200000000000040da000000fe002f
:100460004440a900c00120000000e0000300320069
:1004700000002000a00188004440a8000000060001
:10048000f03fb1000180b10006003500ee03090025
:1004900000000000403fb1000180b100fbff3d00c3
:1004a0001000b000203fb0000200350000800900bd
:1004b00000000000000006008a1f78008b1f7800f3
:1004c0000000060091018800800478000000eb0025
:1004d0001a003700e284440032a0b4009905ba0043
:1004e000e284440032a0b4009906ba00e2844400d9
:1004f00032a0b4000006eb00476fde00fd07b2003b
:10050000636ce10003003a00ebff07000000eb0022
:100510000a003700606ce10004003a00005deb0067
:100520008b05e900fdff3e00040037006168e10033
:10053000010032000086eb000b00070019c7ba006b
:100540001905ba000e04e00003003a000a00e000ba
:10055000e0ff3a0000000600fe07b2009e0188009e
:100560008a047800f5ff3700395dba008b05e90091
:100570000c003200295dba008b05e900080032004a
:100580000c00e00003003a00e284440032a0b40012
:10059000f5ff370019ddba008b05e900faff3a00d4
:1005a0008904e800e184440032a0b40000000600a1
:1005b000f403040000000000809fbe000000fa0069
:1005c0008500a900508420009040780003c8bf0037
:1005d00080cf500002003a0010c0b30005e8b70019
:1005e0000368ef0013e1a9000c68ef000080fa0037
:1005f0004f00be0000400600809fbe000000fa00d1
:100600001821ef008780a90007c8bf00f44f5000f1
:100610000f003a0030c0b30005e8b7000768ef00ec
:10062000208d200011c0b30001487800408d2000cb
:1006300061c0b30001487800308d200011c0b300c4
:100640000148780050c4b30009e8b7000300370040
:1006500007c8bf000040e80007e8b7000080fa00c4
:100660004f00be0000400600801f78000000fa0026
:100670000621ef0084e0a90008c8bf00f44f500035
:1006800004003a000868ef0050c0b30005e8b70066
:100690000300370008c8bf000040e80008e8b700c2
:1006a0000080fa004f00780000400600809fbe00e6
:1006b000821f78000200fa0030118000004f78009d
:1006c0008560a9000a21ef0003c8bf000004e00014
:1006d00009003a001e407800e34f40000e003a0047
:1006e00010c0b30003e8b70040842000d1cfb300ae
:1006f000014878000800370003c8bf000080fb00f5
:10070000418420001e4178008270780003c8bf0039
:100710000040e80003e8b70013e1a8000080fa00f9
:100720004f0178004f00be0000400600809fbe00d1
:10073000821f78000200fa00b0118000004f78009c
:1007400087c0a90013e1a9000a21ef000cc8bf006f
:10075000e14f500009003a0003c8bf000080fb00d1
:10076000418420001e4178008270780003c8bf00d9
:100770000040e80003e8b70013e1a8001e80fb007a
:10078000e1032000810f500007003200b104200077
:10079000810f50000b003200a1032000810f500098
:1007a000040032000a00370010c0b30001e8b700af
:1007b0000700370010c0b3000ce8b7000368ef0073
:1007c0000300370010c0b30002e8b70000000000cb
:1007d0000080fa004f0178004f00be000040060084
:1007e0000040da000000fe00881f78000204780054
:1007f0000801780012000700080040004f0478004c
:10080000000006000000fa00881f7800000478004d
:10081000ea8157003fb9970088007800403f2000e8
:100820000e0007000000e000020035008040eb00f1
:10083000017478004f0478000080fa000000060080
:100840008001780002003700b15978000201e90008
:100850000200e000fcff3a00000006006200fa001f
:10086000889fbe008a1f7800000578008104780008
:10087000020478008300780080f92f000f00400008
:10088000a80007009a979f00a9979f000000eb001f
:10089000b09f9f001885fb008a04fb000a05ea0050
:1008a0004f55de0050022000808f54000d003200b2
:1008b000e10f55000b003a000a017800880078002b
:1008c0002f9097009f91970003000100a0979f0031
:1008d0000000e0008e0032003f9897000000e80022
:1008e000b09f9f000a04440050022000808f5400f3
:1008f000040032000900e000e6ff3a003f9897004c
:10090000840037000000eb00909f9f00809f9f00b5
:10091000f0979f00e0979f00d0979f00c0979f009f
:1009200007003700c1902000010050000000400087
:100930000190200061007800df98970001007000ae
:10094000d09f9f008804780009047800384578001b
:100950008a00fb00c0902000740007000000e00047
:10096000f0ff3a00a1c2b300814f55000e003a00db
:10097000cf8897000180e900c08f9f0010007800a9
:10098000c09f9f000000e00005003d000000ea005d
:10099000c09f9f005f9897000020a000d09f9f00fd
:1009a0000904e8000f003700c09f9f000000eb0023
:1009b00005003700f2ff2700820f500002003200ce
:1009c0006a01b900028040000904780088047800b8
:1009d000b900fb000103b100e98f5000f5ff3600bc
:1009e000c09f9f00e0c2b300984f10000200320089
:1009f0000080eb0019003700a0c2b300d84f1000f0
:100a000007003a00cf8897000180e900c08f9f005f
:100a100010007800a09f9f000804e8001000370035
:100a20000000eb00a09f9f008800780005003700c1
:100a3000f3ff2700830f5000020032006a02b90062
:100a40000400410001047800880078003101fb00b7
:100a50000203b100e90f5100f5ff3600a09f9f008f
:100a6000984478008900fb00808f20002f00070049
:100a70000000e000020032000804e8000100370036
:100a80008044eb00c97f9f0080c6b30080cf540034
:100a900004003a0098cf14000a003a006640500063
:100aa00006003700c0c6b30080cf540005003a00ee
:100ab00098cf140003003a0065404000c07f9f00bb
:100ac0000804e8001801fb00e3fb2f008f814100c0
:100ad00081f92f008f804000a0f92f000f00400007
:100ae0001e0007000000e00009003a00e1fb2f00b3
:100af0008f804000a0f92f000f004000290107005f
:100b00000000e000020035000804e80061ff370043
:100b10000080eb004f0578004f04be000080fa0013
:100b200000000600010878000000060002003700ff
:100b30000304e000060032000001780002007800a3
:100b4000b041780081cf5100f9ff3a000100370031
:100b50000001eb000200780000000600889fbe0044
:100b60008a9fbe00e4c6b300844f5100be0032002d
:100b700010003c006b425200844f510018003200bc
:100b800005003c0054c2b300844f5100f60032000f
:100b900084c5b3000f00370044c6b300844f510032
:100ba0001400320065424200844f5100f1003a00c7
:100bb0001000370004c7b300844f5100dd0032003d
:100bc0005600350065424200844f51005300320008
:100bd00063424200844f5100e6003a004f00370064
:100be0001181e90082087800f0009000124178003d
:100bf000de00370020629000c5c6b300854f52006a
:100c000007003a009102780064825200840878005c
:100c10001402be004fabde008603780014003700dc
:100c200015c7b300854f520003003a001104780045
:100c30006802540005003700a5c6b300854f520076
:100c400006003a0091047800688254008408780015
:100c50005403be004402be00050037001182e900c3
:100c60008408780014027800cfa2de00612bb9005e
:100c70000498be000690be00a060900088c6b30035
:100c800088cf50000d00320028c6b30088cf500036
:100c900004003a000402fb00cfa2de00612bb90081
:100ca0000800370048c7b30088cf50000300320067
:100cb0006644440088cf500004003a00cfa2de0012
:100cc000612bb9000498be000690be003002be0041
:100cd0002003be00f0009000e00f5200e08f5a00a9
:100ce000e00f5b00e08f5b0002003d00d4c2b30068
:100cf00008003700001290000418a3000200320020
:100d0000b4c2b300030037000408a300510032004e
:100d100004c2b30084f178004c00370020629000d8
:100d2000c5c6b300854f520008003a00110578008f
:100d300064025500840878001404be006055b800b1
:100d40000802be000a03be001400370015c7b30036
:100d5000854f520003003a009104780068825400e5
:100d600005003700a5c6b300854f520006003a00c3
:100d70001105780068025500840878005403be000d
:100d80004402be00050037001182e90084087800a3
:100d9000140278008002eb006033b8000498be00b3
:100da0000690be00a060900088c6b30088cf5000b7
:100db0000d00320028c6b30088cf500004003a006e
:100dc0000482fb008002eb006033b80008003700ab
:100dd00048c7b30088cf5000030032006644440087
:100de00088cf500004003a008002eb006033b80066
:100df0000498be000690be00801090000138a30049
:100e0000140032003002be002003be00e00f52008a
:100e1000e08f5a00e00f5b00e08f5b000d003200b6
:100e200081c7b300814f51000300320081c5b30078
:100e3000814f510007003a00f000900004c3b30056
:100e400084f178008100e80082f178008100e800f8
:100e500071009800f00090008181410063009800cb
:100e6000824078003e003700a0619000c4c6b30005
:100e70001181e90084cf5100220032000a003c00b9
:100e80006442520084cf51002500320004c2e800c1
:100e900084cf5100130032006842520084cf5100c9
:100ea0001e003a000a00370044c7b30084cf510047
:100eb0001b0032006642420084cf5100180032000d
:100ec0006942520084cf510014003a0005003700f7
:100ed000820878009200780040589000804878009e
:100ee0002c0037008208780092007800600a900099
:100ef000cfa2de00612bb9008498be008690be00b0
:100f00002400370082087800920078006009900081
:100f1000cf91de008288be001e0037001181e900fb
:100f200082087800920078006008900080087800bd
:100f3000180037001181e900820878001202780059
:100f4000cfa2de00612bb9000498be000690be005f
:100f5000f0009000818141006300980081c7b300d8
:100f6000cc0007000b003700f000900082f1780001
:100f700006003700f0009000818141000204e0008b
:100f800001003a0052c2b300824978008100e800b3
:100f9000710098000000eb004f05be004f04be003a
:100fa000000006000400fa00889fbe008a9fbe0071
:100fb0008c1f78000004780001067800f80d90007e
:100fc00078009000808555000808900080855500c5
:100fd00018089000808555002808900080855500ed
:100fe000380890008085550048089000808555009d
:100ff0000002220090bf9f0000032300a0bf9f00bb
:10100000081090000028a30015003a000b00e00033
:10101000130034000b0578008a047800e20f5500b5
:101020000100360029002000c80190000901780065
:10103000ee80570058009000030001005004980013
:101040000000e0008c0032006808900009004000b9
:10105000600c9800090555004240a900eeff3c00d5
:10106000780190000200e0000c003400c8019000fc
:101070008c00780058009000030001005004980094
:101080008080eb000000e0007c003200e808900067
:101090007800900000804000600c9800880c900060
:1010a0000900e0001100340009057800e28f5400c7
:1010b000010036002a002000c80190000a017800d3
:1010c000ec80570058009000030001005004980085
:1010d0000000e00068003200680890000a0040004c
:1010e000600c98008a845400edff370018099000c6
:1010f0000200e0000c003400c8019000e8009000fd
:101100005800900003000100500498008080eb001c
:101110000000e00059003200e80890001808900034
:1011200000804000600c9800a80c90000900e000ce
:101130001100340009057800e28f540001003600e8
:101140002a002000c80190000a017800ec805700b6
:101150005800900003000100500498000000e000d7
:1011600045003200680890000a004000600c9800ba
:101170008a845400edff3700380990000200e00037
:101180000e003400e80090001808900080804000b5
:10119000c80190005800900003000100500498001e
:1011a0008080eb000000e00034003200e80890008e
:1011b0003808900000804000600c9800c80c900037
:1011c0000900e0001100340009057800e28f5400a6
:1011d000010036002a002000c80190000a017800b2
:1011e000ec80570058009000030001005004980064
:1011f0000000e00020003200680890000a00400073
:10120000600c98008a845400edff370008109000ad
:101210008000eb000028a300180032000b00e00063
:10122000160034008b04780009057800e28f540022
:10123000010036002a002000c80190000a01780051
:10124000ee80570058009000030001005004980001
:101250000000e00008003200680890000a0040002a
:10126000600c98008a8454004240a900eeff3c00c4
:101270008000eb00010037008080eb000100780067
:101280004f0678004f05be004f04be000080fa00f4
:1012900000000600fc874700889fbe008a9fbe00b2
:1012a0008c9fbe008e1f78000006780080c5b300ba
:1012b00080cf50000a0032007740400080cf5000bd
:1012c0000a0032006940400080cf50000b0032001d
:1012d000708e200080bf9f00ae0020000a00370003
:1012e000628d200082bf9f0006003700738e2000b1
:1012f00083bf9f008e00200003003700748e200003
:1013000084bf9f000e0120003c02be002c03be00e3
:101310000605be000404be0040c6b30080cf5000e6
:10132000030032006540400080cf50000b003a00bf
:10133000e00f5200e08f5a00e00f5b00e08f5b008f
:1013400006003d006000b8006011b80004045000c1
:10135000858458000605590087855900e80f570015
:101360000400320040002000f00f570038003a001f
:101370000100370030002000e00f5400e08f5c00d7
:10138000e00f5d00e08f5d0004003a00dc08900093
:101390008d0120000100e000060032008e00e9000f
:1013a000888060008fba9700e5c07800f1ef9f0059
:1013b0007d012000800078008100e90005003300f5
:1013c0008b05d1000a85d3008984d3000884d3001b
:1013d000f9ff3700089ebe000a96be0012003700d3
:1013e0008d06e9008e00e900848060000fb9970047
:1013f000e2c1780082fd2f000f01410003f17e0061
:10140000800078008100e900050033008783d10067
:101410000683d3008582d3000482d300f9ff37000e
:10142000049ebe000696be003c02be002c03be0019
:10143000e00f5200e08f5a00e00f5b00e08f5b008e
:101440008b0034000d00e000e5ff3c008800370011
:101450002c60900081c6b300814f50000b00320019
:1014600006003c000004e00008003200e6c0500026
:10147000814f50004e003a0004003700c1c6b3004f
:10148000814f50004a003a00210037000800e00078
:1014900004003a005c0890008d0120000000e0008c
:1014a00006003200110009000e84d8000fb9970021
:1014b000e2c07800f1ef9f007d01200011000900db
:1014c0000e84d8000a003700110009000e04d8006d
:1014d0008d06e9000e81b900020454008fb8970010
:1014e00061417c0081fd2f008f80400082f07e00f2
:1014f000000478000800e000020032000d00e00067
:10150000f1ff3c00cfc4de00614db900250037007b
:10151000e00f5400e08f5c0004003a005c0890008b
:101520008d0120000000e000070032006171b90069
:101530000800be00860007008fb99700e3417800dd
:10154000f3ef9f007d0120006171b9000800be002b
:10155000820007000b0037006171b9000800be006f
:101560008e0007008d06e90000f1b9000204540066
:101570000fba9700e4427c0084fd2f000f02420066
:1015800005f27e000004be00e00f5000e08f58001e
:10159000020032000d00e000efff3c004fcdde0006
:1015a0008a057800089ebe000a96be00300037000b
:1015b000e00f5400e08f5c00e00f5d00e08f5d0005
:1015c00004003a005c0890008d0120000000e0005b
:1015d000090032006172b900612bb9000800be0039
:1015e0000a01be00eb0007000fba970064427800c2
:1015f000f4ef9f007d0120006172b900612bb900fa
:101600000800be000a01be00db0007000d00370025
:101610006172b900612bb9000800be000a01be006a
:10162000e00007008d06e90000f2b9000404540050
:101630008fba970065427c0085fd2f008f824200a3
:1016400084f27e00009ebe000296be003c04be00f6
:101650002c05be00e00f5400e08f5c00e00f5d0041
:10166000e08f5d00020034000d00e000e8ff3c0068
:10167000e80f570010003a000c1090000038a3004b
:101680000d003200f78f560006003e0085fd2f004a
:101690008f824200e5c07e0000c3b30080cf5000bf
:1016a000050032008d06e90002c3b30081fd2f0062
:1016b0008f80400082f07e0078811600120e980024
:1016c0006c00900083fd2f008f8141008d804100d0
:1016d0005bfc07001c089000dc089000810f5000a4
:1016e00006003d0000805000000e98000c10900095
:1016f0000040a100001698000f0037000100e00034
:101700000d003d008c109000f4806000f08f5000c0
:1017100009003a007c099000fc0090008100510013
:101720000c09900082805000008050004240a900c7
:1017300001003400000e98004f0778004f06be00ed
:101740004f05be004f04be00cf01b10000000600ef
:10175000020007000400be00000006006022b8007e
:10176000060220000000d0008180d2000482d20056
:101770008582d2000000a0000202520083825a003b
:10178000030031000202420083824a000000a100ef
:101790000603e900f3ff3a0000000600839f68009b
:1017a0000100e00002003d0060001000e080180031
:1017b0000300e00002003d0060011100e08119001b
:1017c000e6ff07004f00e00002003b006000100051
:1017d000e080180000000600889fbe008a9fbe00bf
:1017e00030044200b0844a0030054b0090854b0025
:1017f0006000b1000898be000a90be00c10007005a
:1018000002003100680040001008e8004f05be00eb
:101810004f04be0000000600889fbe008a9fbe00e5
:101820003004be002005be000418540005985c007a
:1018300006185d0007985d0011002000b100070048
:10184000010039008000eb00108810004f05be0039
:101850004f04be00000006001200fa00889fbe0080
:101860008a9fbe008c9fbe00e0b79f00f1b79f002b
:1018700082bf9f0093bf9f000605be000404be0008
:101880000000eb00d0b79f00c0b79f00b0b79f002b
:10189000a0b79f0090b79f000006eb005fb19700d4
:1018a000cfb09700820141003fb097000200e000f6
:1018b00004003d00980007007e805700c6ff070027
:1018c00003003700940007007e805700d2ff070016
:1018d000dfb697000d00e0000c0035006fb29700f6
:1018e000ffb297000fbb97009fbb9700100020002e
:1018f000010020006011b8000002720081827200b5
:101900000203730083837300580007000c06e8008d
:1019100001042000810f5600e0ff3a000d00e000b6
:1019200004003d000802be000a03be007e8057008e
:10193000a9ff07005fa897000000e00005003a003b
:101940001fb29700afb297003fb39700cfb3970095
:10195000460007006fb09700ffb097000fb99700df
:101960009fb997004f06be004f05be004f04be0052
:101970000080fa0000000600881f78001800200090
:10198000881f7800b4ff07008f87e9004f047800b4
:1019900000000600801feb00afff07008f87e90003
:1019a00000000600889fbe008a9fbe003d00070021
:1019b00007003d0040000700180020004500070018
:1019c00008003d002b0007000004eb000500370075
:1019d0000004eb003f00070002003d002500070067
:1019e00018002000e4ff07000800e00001003200ba
:1019f0003d0007004f05be004f04be00000006007a
:101a0000889fbe008a9fbe008c1f780025000700bb
:101a100008003d00280007001c0020000820e1000d
:101a200009a8e1000ab0e1000bb8e10007003d00a1
:101a3000050037000006eb002600070003003d000c
:101a40006044b8006055b8000c000700d1ff0700e3
:101a50000c00e00001003200230007004f06780070
:101a60004f05be004f04be0000000600080007003e
:101a7000000006006044b8006055b800040254003d
:101a800085825c0006035d0087835d000000060020
:101a9000a4b79f00b5b79f00c6b79f00d7b79f00f8
:101aa00000000600e00f5000e08f5800e00f5900e2
:101ab000e08f5900000006006044b8006055b8008f
:101ac0000000540081805c0002015d0083815d00a4
:101ad00000000600e00f5200e08f5a00e00f5b00ac
:101ae000e08f5b00000006006022b8006033b800a1
:101af0000000520081805a0002015b0083815b007c
:101b0000000006000440e10005c8e10006d0e10045
:101b100007d8e100000006004f09de008281710055
:101b2000b3b79f004f01de008180400082807000cb
:101b3000a1b79f008fb097004f09de000000400062
:101b40000200700090b79f007fa897004f01de0051
:101b5000818040008280700081b79f000d000700e7
:101b60004f3ade000000400004007000f0af9f001c
:101b7000080007000402420085824a0006034b0069
:101b800087834b00c2ff07000802be000a03be00a5
:101b9000000006002fb29700bfb297004fb3970026
:081ba000dfb39700000006000e
:020000040000fa
:101ba80045300000002b000043490000505300005e
:101bb800454e0000443d000025750000002b000044
:101bc8004349000050530000454e0000443d0000ca
:081bd800313900003500000066
:020000040000fa
:101be0000400fa0020479800314798002e409000ea
:101bf00000404000804078003e40900000cf400010
:101c00001e407800020007000080fa000000060075
:101c10000200fa00004f7800000000004010800031
:101c2000610060000000e000fcff3a008620a9008f
:101c30001e80fb0010108800000000004110800092
:101c400000002800008060000000e000fbff3a0078
:101c50000000000030048000620060000000e0002e
:101c6000fcff3a000000000041108000000024004a
:101c7000008060000000e000fbff3a000080fa00f6
:101c8000000006000800fa0010079800414798007d
:101c900052479800634798008040eb006e409000e8
:101ca000cfff07005e409000d9ff07000040eb0027
:101cb000004f7800060037001e80fb009e00900059
:101cc0000080400010407800d1ff07001e4fe80060
:101cd0004e4090009e40780080cf5000f6ff3900c3
:101ce0000642a80000000000301080006400600080
:101cf0000000e000fcff3a000080fa00000006004f
:101d00000400fa00204798008620a9000662a80077
:101d10000000000030048000620060000000e0006d
:101d2000fcff3a008620a90000000000401080005f
:101d3000620060000000e000fcff32000010800044
:101d4000004f78002e409000e14f500001003a0013
:101d5000400007001e4078000080fa0000000600e6
:101d60000800fa00881f7800100798004147980083
:101d700052479800634798002d0007008040eb0011
:101d80006e40900096ff07005e409000a0ff0700a5
:101d90004000070011c0b3006e40900090ff0700a4
:101da0000040eb00004f78004e4190000180200081
:101db000824878000040eb00004f780014003700a4
:101dc0001e80fb009e009000008440000040eb005d
:101dd000cbff0700004c78009e80fb004e40900037
:101de0000080fb000000e900808f500007003200f7
:101df00006a2a9000682a8000000000030108000a2
:101e0000700060000000e000fcff3a001e4fe80098
:101e10004e4090009e40780080cf5000e8ff39008f
:101e20000c0007004f0478000080fa000000060054
:101e30000000fa000602a800000000003010800038
:101e4000610060000000e000fcff3a000080fa0042
:101e5000000006000000fa0006a2a8000682a80002
:101e60000000000030108000700060000000e00002
:101e7000fcff3a000642a80000000000301080007d
:101e8000640060000000e000fcff3a000080fa00ff
:101e9000000006000000fa000622a8000000000072
:101ea00030108000620060000000e000fcff3a009b
:101eb0000080fa00000006000a00fa00204798009f
:101ec000314798004247980033079800440798002c
:101ed0003e40900063404000104798000040eb00f7
:101ee000004f78001f0037001e80fb00e10f5000fc
:101ef00008003200e20f50000b0032000000e0004a
:101f00000e003a004e009000ae409000014878006c
:101f1000130037004e0090000000e8009e40900043
:101f2000014878000e0037004e0090000080e80065
:101f3000ce40900001487800090037001e80fb0069
:101f4000ce009000008040009e80fb00e3805000a7
:101f50003e019000810041009140780001487800e6
:101f60001e4fe8001e4090009e40780080cf500039
:101f7000ddff39000080fa00000006000800fa00ca
:101f80001007980021079800320798001e00900063
:101f90000000e800104078006340500010479800af
:101fa0001e0090000080e800904078003e00900005
:101fb000014878000040eb00004f78000a0037002d
:101fc0001e80fb00ae009000008040009e80fb0061
:101fd000e38040001e0190008100410091407800a4
:101fe000014878001e4fe8001e4090009e40780097
:101ff00080cf5000f2ff39000080fa000000060098
:102000000000fa003135800000fe2f0000806000e3
:102010009000b300303588005136800000fe2f005c
:10202000008060005000b30050368800500120004e
:10203000c011880033e2a80031e2a80097c0a800d0
:102040003342a80000962000010020000cf9070090
:1020500087e0a90087c0a90000a025002126200054
:1020600007f9070040dd2800020007000080fa00a1
:10207000000006000400fa00100798001e009000ff
:102080006c000700104798000000000091118000cc
:1020900000202000008060000000e000fbff3a000c
:1020a00010042000a01188000000000091118000a1
:1020b00000202000008060000000e000fbff3a00ec
:1020c00040052000a01188000040eb00004f780080
:1020d0000d0037000000000091118000002020005a
:1020e000008060000000e000fbff3a001e80fb0063
:1020f0009e00900000804000104078000080fb00af
:10210000a01188001e4fe8001e4090009e407800fd
:1021100080cf5000efff39000000000091118000d7
:1021200000202000008060000000e000fbff3a007b
:10213000d0002000a0118800000000009111800054
:1021400000202000008060000000e000fbff3a005b
:10215000a0002000a01188000080fa000000060006
:102160001800fa00300f98003e0890000000e800c8
:102170009040780011479800e200470009000900ec
:102180008018eb000168ef001e4090008080fb008b
:102190000e80e800811f780071dd2800811f780023
:1021a00098f90700e48757000e80e800b1ff0700a8
:1021b0000000000001c8bf000004e000fdff320085
:1021c0000168ef000040eb00004f78000d00370081
:1021d00000000000911180000020200000806000bd
:1021e0000000e000fbff3a001e80fb00be089000ec
:1021f00000804000104078000080fb00a0118800a3
:102200001e4fe8001e4090009e40780080cf500096
:10221000efff39000268ef000000000002c8bf00b5
:102220000004e000fdff32000268ef000080fa00c9
:10223000000006000400fa00100798000040eb00c0
:10224000004f78000040eb00104798000400370072
:102250001e4090000040e800104798001e4fe80024
:102260001e80fb009e00900000804000104078001f
:102270000004e000f6ff3a001e4090000080fa00e3
:10228000000006008400fa005800070092000700d2
:1022900083000700a5000700d500070058ff0700ce
:1022a0000040eb00004f78000040eb001047980022
:1022b000e20047001d0009008018eb008e00780046
:1022c000e103b000220009008018eb003a03070088
:1022d000004f7800ca02a9001e407800fa4f500053
:1022e00003003a0000c0eb0004e8b70083000700d9
:1022f000518020009140780004c8bf0000c06000f9
:102300000080fb00e20f500019003200e20f500085
:1023100005003c000000e0000a003200e10f500020
:10232000090032002e003700e40f50002600320072
:10233000e40f500020003500e50f5000250032006a
:1023400027003700280037000e80e8009280200028
:10235000800078004084200008ff07009180200062
:10236000914078000e80e800b30007001e0037009f
:102370009180200091407800408d2000104078002e
:10238000e30320008e8141000e81e8000302780003
:10239000820178000141780080407800e0cfb300ee
:1023a000c5fe0700e00320000e00400059010700b1
:1023b000090107000c0037000e80e800210107002a
:1023c00009010700080037007d010700150107001b
:1023d00005003700bd0207001601070002003700a4
:1023e0000568ef00c2ff3700c1ff37000000fa00a8
:1023f00080022000303a8800213a8000f0f32f005c
:1024000000806000203a8800213a800000fe2f0002
:1024100000806000203a8800320020008007200001
:10242000a109200033742000804978008149780098
:10243000824978001200200060042000710520000d
:10244000237420008049780081497800824978000f
:1024500000000000113a800000002700808060002a
:1024600000002300808f5000faff3a0000000000b7
:10247000113a800000022000008060000000e000af
:10248000fbff320060042000103a88007005200035
:10249000103a880042c7a9000080fa000000060038
:1024a0000000fa000080eb00601988000080eb005b
:1024b00060198800c802a90001348000f00f2e00c6
:1024c0000080600000a0a000003488008680a90081
:1024d0000080fa00000006000000fa00d00520008d
:1024e0002010880007e2a8008600a9000722a800a3
:1024f0000762a9000080fa00000006000000fa0050
:10250000a1c2b3000040eb0098020700d1c2b300a3
:102510000040eb0095020700a1c2b30010c0b30059
:10252000920207000080fa00000006000000fa0096
:1025300021068000f0f82f00808060000006200057
:1025400001007000200688002135800000fe2f0069
:10255000008060000030a000203588003136800007
:10256000f00f2e008080600000302000010070001d
:1025700030368800100820004011880023e2a800af
:1025800021e2a8009560a8002342a8000096200040
:1025900001002000baf707008580a9008560a90026
:1025a0000080fa00000006000000fa00a1c2b3009b
:1025b0000040eb006d02070091c0b30000c8b300fb
:1025c0006a020700d1c2b3000040eb0067020700b7
:1025d000e1c2b3000040eb0064020700a1c2b300f7
:1025e00010c0b300610207000080fa00000006007e
:1025f0000000fa000080eb00700888000a21ef005c
:102600008500a9009500a80000c42900e008880002
:102610001821ef008780a9009780a80000e224001d
:10262000600888000621ef0084e0a90094e0a8007b
:102630000080fa00000006000400fa00000f780095
:102640002147980030c0b30005e8b7002e40900045
:102650000080fb006101b900f0fb2f00f1ff2f00ab
:102660000200400083804800b200200003002000e8
:10267000820f5000838f580055003e00006001001b
:102680000b003700140037001d0037002b00370007
:102690002e00370030003700320037003500370099
:1026a000380037003d003700400037004300370056
:1026b000208d200011c0b30001487800408d20001b
:1026c00021c3b30001487800308d20008040eb002a
:1026d000014878003e003700208d200011c0b30073
:1026e00001487800408d200061c0b30001487800a7
:1026f000308d200011c0b30001487800340037004d
:10270000208d20008040eb0001487800408d2000a3
:1027100011c0b300014878001e0078009040780096
:10272000308d2000014878001e00e80090407800bd
:102730001e00780001487800250037009aff070046
:102740001068ef000568ef002100370040c0b300bb
:1027500005e8b7001e00370040c0b30005e8b70029
:102760001b00370010c0b300330107000568ef00fd
:10277000170037000040eb002f0107000568ef004d
:102780001300370010c0b30010e8b70010c0b3004a
:10279000fa0007000568ef000d0037000040eb006d
:1027a000f60007000568ef00090037001e007800fa
:1027b00030fe07000568ef00050037001e007800b6
:1027c0001040780011e8b7000568ef000000000035
:1027d0000080fa00000006000000fa000568ef0023
:1027e0000080fa00000006000000fa00208d2000a2
:1027f000104078000080fb000000e000050032007f
:10280000e10f500005003a0020c0b30005e8b70012
:10281000020037000568ef00000000000080fa00a9
:10282000000006000000fa000568ef000080fa00d2
:10283000000006000000fa000568ef000080fa00c2
:10284000000006000200fa00000f7800208d200032
:10285000104078000080fb000000e0001b00320008
:10286000e10f500029003a00010980000000280013
:10287000008060000000e0001100320021e1a900aa
:102880001e007800650007009e007800668040000a
:10289000a180200091407800014878000ac8bf005c
:1028a0000040e8000ae8b700408d200071c0b30086
:1028b0000148780050c4b30009e8b700130037009e
:1028c0001e0078005500070010003700a1c2b300b9
:1028d0000040eb00a5010700308d200090407800fb
:1028e000408d200010407800c3c1b3000141780042
:1028f000804078001e007800e2fc0700a1c2b3000f
:1029000010c0b30099010700000000000080fa0029
:10291000000006000400fa001007980011c8bf006c
:102920000080fb000000e00003003200e10f5000d7
:102930001a003200030037001e00900008fe070056
:10294000170037000040eb00004f78000d00370003
:102950001e80fb009e009000008040001040780028
:102960000080fb0020118800000000001111800091
:1029700000202000008060000000e000fbff3a0023
:102980001e4fe8001e0090000000e8001040780094
:102990009e4f5000eeff3e00010037000000000097
:1029a000918020009140780050c4b30080cf500047
:1029b00001003a0021e1a8000080fa0000000600b2
:1029c0000000fa000109800000002800008060007b
:1029d0000000e0000200320021e1a9000d003700f4
:1029e0001821ef000768ef000a68ef0021e1a80056
:1029f000208d200011c0b30001487800408d2000d8
:102a000061c0b30001487800308d200011c0b300d0
:102a1000014878000080fa00000006003200fa0049
:102a2000001f9800408d20009040780020c3b30024
:102a300080cf500046003a00e1004700070009003f
:102a40008058eb00e9004700100009008058eb00b7
:102a5000fa004700090009008018eb008058eb00dd
:102a60000e00e800c3c1b3000041eb0071c0b30029
:102a7000bbfc070069004700c3c1b30092c0b300ac
:102a800001c1b300b6fc07007a004700c3c1b30020
:102a9000d2c1b30041c1b300b1fc07000040eb005c
:102aa000004f7800080037001e80fb008e18900051
:102ab000008040009e80fb00810047009140900014
:102ac000014878001e4fe8001e407800e64f500095
:102ad000f5ff36000040eb00004f7800090037009a
:102ae0001e80fb00680040008e18900000804000af
:102af0009e80fb00810047009148900001487800cb
:102b00001e4fe8001e407800ef4f5000f4ff3600e3
:102b10000040eb00004f7800090037001e80fb00ea
:102b20007d0040008e189000008040009e80fb00d9
:102b300081004700a1589000014878001e4fe8002e
:102b40001e407800f34f5000f4ff360009003700b4
:102b5000308d200090407800408d2000104078009b
:102b6000c3c1b30001417800804078000e18900086
:102b70007bfc07000080fa00000006000200fa005b
:102b8000004f78001e407800e14f50001f003a00cf
:102b9000a1c2b3000040eb00f400070011c2b30073
:102ba00050c1b300f100070031c2b300c0c0b30090
:102bb000ee00070041c2b300c0c0b300eb00070045
:102bc00051c2b300c0c0b300e800070061c2b30047
:102bd00000c5b300e500070071c2b30000cfb30029
:102be000e2000700d1c2b30080c0b300df000700dd
:102bf000e1c2b30080c0b300dc000700a1c2b30093
:102c000010c0b300d900070009003700a1c2b3000b
:102c10000040eb00d5000700d1c2b3000040eb003c
:102c2000d2000700a1c2b30010c0b300cf0007005c
:102c30000080fa00000006000200fa00004f780051
:102c40009e40780061c060000080fb006100600071
:102c5000511680000100a10001007000501688008c
:102c60000080fa00000006000200fa000040eb00bd
:102c700010479800e00f200020118800000000009d
:102c80001111800000202000008060000000e000a2
:102c9000fbff3a00300c20002011880000000000eb
:102ca0001111800000202000008060000000e00082
:102cb000fbff3a004004200020118800308d2000e6
:102cc00011c0b3000148780059fc07008040eb00b8
:102cd000c0c1b300c2fb0700308d20001040780057
:102ce000cbfb07006bfc070011c0b300c0c1b300f1
:102cf000bbfb07000040eb00004f780019003700d5
:102d00000040eb00fefb070010479800f0cbb3003b
:102d10009e40780080cf50000800320006a2a90033
:102d20000682a800000000003010800070006000e3
:102d30000000e000fcff3a00010037000000000046
:102d40001111800000202000008060000000e000e1
:102d5000fbff3a001e4090000080fb00201188001d
:102d60001e4fe800f0cbb3009e40780080cf5000ab
:102d7000e3ff360037fc07000080fa000000060081
:102d80000200fa0030de2800bafc07000040eb0029
:102d9000104798000000000001c8bf000004e000d8
:102da000fdff32000168ef00e00f2000a011880055
:102db00000000000911180000020200000806000d1
:102dc0000000e000fbff3a00300c2000a01188005a
:102dd00000000000911180000020200000806000b1
:102de0000000e000fbff3a0040042000a011880032
:102df000308d200011c0b300014878000cfc0700a2
:102e00008040eb00c0c1b30075fb0700308d20008f
:102e1000104078007efb07001efc070011c0b300c5
:102e2000c0c1b3006efb07000040eb00004f78000c
:102e3000190037000040eb00b1fb07001047980075
:102e4000f0cbb3009e40780080cf500008003200e5
:102e500006a2a9000682a800000000003010800031
:102e6000700060000000e000fcff3a000100370045
:102e70000000000091118000002020000080600010
:102e80000000e000fbff3a001e4090000080fb00c5
:102e9000a01188001e4fe800f0cbb3009e407800e0
:102ea00080cf5000e3ff3600000000009111800049
:102eb00000202000008060000000e000fbff3a00de
:102ec000e4fb07000080fa00000006000800fa009a
:102ed000e1004700060009008058eb00208d20002b
:102ee00011c0b30001487800408d200061c0b300dc
:102ef00001487800308d200011c0b30001487800ef
:102f00000e00e800c5fe07000040eb00004f78000f
:102f100011003700b18020009140780070c7b300e5
:102f200080cf500001003a000b68ef000bc8bf00d3
:102f30000040e8000be8b7000bc8bf000080fb00b2
:102f40009e80fb0081004700114190008185200098
:102f5000827078001e4fe8001e407800e54f500058
:102f6000ecff36000080fa00000006000200fa00c4
:102f7000004f780011479800adfb07008040eb0040
:102f8000c0c1b30016fb07001e40900020fb0700e5
:102f90001e4078001efb07000642a800000000004b
:102fa00030108000640060000000e000fcff3a0088
:102fb0000080fa00000006000200fa00c3c1b3005e
:102fc000d2c0b30011c0b3000e00780064fb07004c
:0c2fd0001e4078000080fa00000006009f
:020000040000fa
:102fdc0012080000c40000000000000000080000ff
:102fec0010000000000000001008000002000000ab
:102ffc000200000002020000f80800001a000000a5
:10300c0002000000686a6c00747a4c000000010039
:10301c000002000004000800001000000000200066
:10302c002b2d230030000000d608000022000000e9
:10303c0002000000303132003334350036373800ae
:10304c0039414200434445004600300031323300e0
:10305c0034353600373839006162630064656600c8
:08306c0000000000000000005c
:020000040000fa
:0200000401f009
:04000c008000000070
:020000040000fa
:0200000401f009
:040010006500000087
:020000040000fa
:0200000401f009
:040014005f00000089
:020000040000fa
:0200000401f009
:04001800e7000000fd
:020000040000fa
:0200000401f009
:04001c00c20000001e
:00000001FF
