:020000040000fa
:080000000002040000000000f2
:020000040000fa
:040008000a030000e7
:020000040000fa
:04000c000a030000e3
:020000040000fa
:040010000a030000df
:020000040000fa
:040014000a030000db
:020000040000fa
:040018000a030000d7
:020000040000fa
:04001c000a030000d3
:020000040000fa
:040020000a030000cf
:020000040000fa
:040024000a030000cb
:020000040000fa
:040028000a030000c7
:020000040000fa
:04002c000a030000c3
:020000040000fa
:040030000a030000bf
:020000040000fa
:040034000a030000bb
:020000040000fa
:040038000a030000b7
:020000040000fa
:04003c000a030000b3
:020000040000fa
:040040000a030000af
:020000040000fa
:040044000a030000ab
:020000040000fa
:040048000a030000a7
:020000040000fa
:04004c000a030000a3
:020000040000fa
:040050000a0300009f
:020000040000fa
:04005400d8020000ce
:020000040000fa
:040058000a03000097
:020000040000fa
:04005c000a03000093
:020000040000fa
:040060000a0300008f
:020000040000fa
:040064000a0300008b
:020000040000fa
:040068000a03000087
:020000040000fa
:04006c000a03000083
:020000040000fa
:040070000a0300007f
:020000040000fa
:040074000a0300007b
:020000040000fa
:040078000a03000077
:020000040000fa
:04007c000a03000073
:020000040000fa
:040080000a0300006f
:020000040000fa
:040084000a0300006b
:020000040000fa
:040088000a03000067
:020000040000fa
:04008c000a03000063
:020000040000fa
:040090000a0300005f
:020000040000fa
:040094000a0300005b
:020000040000fa
:040098000a03000057
:020000040000fa
:04009c000a03000053
:020000040000fa
:0400a0000a0300004f
:020000040000fa
:0400a4000a0300004b
:020000040000fa
:0400a8000a03000047
:020000040000fa
:0400ac000a03000043
:020000040000fa
:0400b0000a0300003f
:020000040000fa
:0400b4000a0300003b
:020000040000fa
:0400b8000a03000037
:020000040000fa
:0400bc000a03000033
:020000040000fa
:0400c0000a0300002f
:020000040000fa
:0400c4000a0300002b
:020000040000fa
:0400c8000a03000027
:020000040000fa
:0400cc000a03000023
:020000040000fa
:0400d0000a0300001f
:020000040000fa
:0400d4000a0300001b
:020000040000fa
:0400d8000a03000017
:020000040000fa
:0400dc000a03000013
:020000040000fa
:0400e0000a0300000f
:020000040000fa
:0400e4000a0300000b
:020000040000fa
:0400e8000a03000007
:020000040000fa
:0400ec000a03000003
:020000040000fa
:0400f0000a030000ff
:020000040000fa
:0400f4000a030000fb
:020000040000fa
:0400f8000a030000f7
:020000040000fa
:0400fc000a030000f3
:020000040000fa
:040100000a030000ee
:020000040000fa
:040104000a030000ea
:020000040000fa
:040108000a030000e6
:020000040000fa
:04010c000a030000e2
:020000040000fa
:040110000a030000de
:020000040000fa
:040114000a030000da
:020000040000fa
:040118000a030000d6
:020000040000fa
:04011c000a030000d2
:020000040000fa
:040120000a030000ce
:020000040000fa
:040124000a030000ca
:020000040000fa
:040128000a030000c6
:020000040000fa
:04012c000a030000c2
:020000040000fa
:040130000a030000be
:020000040000fa
:040134000a030000ba
:020000040000fa
:040138000a030000b6
:020000040000fa
:04013c000a030000b2
:020000040000fa
:040140000a030000ae
:020000040000fa
:040144000a030000aa
:020000040000fa
:040148000a030000a6
:020000040000fa
:04014c000a030000a2
:020000040000fa
:040150000a0300009e
:020000040000fa
:040154000a0300009a
:020000040000fa
:040158000a03000096
:020000040000fa
:04015c000a03000092
:020000040000fa
:040160000a0300008e
:020000040000fa
:040164000a0300008a
:020000040000fa
:040208000a030000e5
:020000040000fa
:04020c000a030000e1
:020000040000fa
:040210000a030000dd
:020000040000fa
:040214000a030000d9
:020000040000fa
:040218000a030000d5
:020000040000fa
:04021c000a030000d1
:020000040000fa
:040220000a030000cd
:020000040000fa
:040224000a030000c9
:020000040000fa
:040228000a030000c5
:020000040000fa
:04022c000a030000c1
:020000040000fa
:040230000a030000bd
:020000040000fa
:040234000a030000b9
:020000040000fa
:040238000a030000b5
:020000040000fa
:04023c000a030000b1
:020000040000fa
:040240000a030000ad
:020000040000fa
:040244000a030000a9
:020000040000fa
:040248000a030000a5
:020000040000fa
:04024c000a030000a1
:020000040000fa
:040250000a0300009d
:020000040000fa
:040254000a03000099
:020000040000fa
:040258000a03000095
:020000040000fa
:04025c000a03000091
:020000040000fa
:040260000a0300008d
:020000040000fa
:040264000a03000089
:020000040000fa
:040268000a03000085
:020000040000fa
:04026c000a03000081
:020000040000fa
:040270000a0300007d
:020000040000fa
:040274000a03000079
:020000040000fa
:040278000a03000075
:020000040000fa
:04027c000a03000071
:020000040000fa
:040280000a0300006d
:020000040000fa
:040284000a03000069
:020000040000fa
:040288000a03000065
:020000040000fa
:04028c000a03000061
:020000040000fa
:040290000a0300005d
:020000040000fa
:040294000a03000059
:020000040000fa
:040298000a03000055
:020000040000fa
:04029c000a03000051
:020000040000fa
:0402a0000a0300004d
:020000040000fa
:0402a4000a03000049
:020000040000fa
:0402a8000a03000045
:020000040000fa
:0402ac000a03000041
:020000040000fa
:0402b0000a0300003d
:020000040000fa
:0402b4000a03000039
:020000040000fa
:0402b8000a03000035
:020000040000fa
:0402bc000a03000031
:020000040000fa
:0402c0000a0300002d
:020000040000fa
:0402c4000a03000029
:020000040000fa
:0402c8000a03000025
:020000040000fa
:0402cc000a03000021
:020000040000fa
:0402d0000a0300001d
:020000040000fa
:0402d4000a03000019
:020000040000fa
:0402d8000a03000015
:020000040000fa
:0402dc000a03000011
:020000040000fa
:0402e0000a0300000d
:020000040000fa
:0402e4000a03000009
:020000040000fa
:0402e8000a03000005
:020000040000fa
:0402ec000a03000001
:020000040000fa
:0402f0000a030000fd
:020000040000fa
:0402f4000a030000f9
:020000040000fa
:0402f8000a030000f5
:020000040000fa
:0402fc000a030000f1
:020000040000fa
:040300000a030000ec
:020000040000fa
:040304000a030000e8
:020000040000fa
:040308000a030000e4
:020000040000fa
:04030c000a030000e0
:020000040000fa
:040310000a030000dc
:020000040000fa
:040314000a030000d8
:020000040000fa
:040318000a030000d4
:020000040000fa
:04031c000a030000d0
:020000040000fa
:040320000a030000cc
:020000040000fa
:040324000a030000c8
:020000040000fa
:040328000a030000c4
:020000040000fa
:04032c000a030000c0
:020000040000fa
:040330000a030000bc
:020000040000fa
:040334000a030000b8
:020000040000fa
:040338000a030000b4
:020000040000fa
:04033c000a030000b0
:020000040000fa
:040340000a030000ac
:020000040000fa
:040344000a030000a8
:020000040000fa
:040348000a030000a4
:020000040000fa
:04034c000a030000a0
:020000040000fa
:040350000a0300009c
:020000040000fa
:040354000a03000098
:020000040000fa
:040358000a03000094
:020000040000fa
:04035c000a03000090
:020000040000fa
:040360000a0300008c
:020000040000fa
:040364000a03000088
:020000040000fa
:10040000af8420000e7f22000e0188000000000053
:10041000000020000000e000020032000001200087
:10042000200288000e000700405820000100200034
:10043000810f700001003200220007000000200040
:100440000000e00002003200000002000000000096
:1004500066040200000000000040da000000fe0018
:100460004440a900000020000000e000030032002a
:1004700000002000a00188004440a8000000060001
:10048000f03fb1000180b10006003500ee03090025
:1004900000000000403fb1000180b100fbff3d00c3
:1004a0001000b000203fb0000200350000800900bd
:1004b00000000000000006008a1f78008b1f7800f3
:1004c0000000060091018800800478000000eb0025
:1004d0001a003700e284440032a0b4009905ba0043
:1004e000e284440032a0b4009906ba00e2844400d9
:1004f00032a0b4000006eb00476fde00fd07b2003b
:10050000636ce10003003a00ebff07000000eb0022
:100510000a003700606ce10004003a00005deb0067
:100520008b05e900fdff3e00040037006168e10033
:10053000010032000086eb000b00070019c7ba006b
:100540001905ba000e04e00003003a000a00e000ba
:10055000e0ff3a0000000600fe07b2009e0188009e
:100560008a047800f5ff3700395dba008b05e90091
:100570000c003200295dba008b05e900080032004a
:100580000c00e00003003a00e284440032a0b40012
:10059000f5ff370019ddba008b05e900faff3a00d4
:1005a0008904e800e184440032a0b40000000600a1
:1005b000809fbe00821f78000200fa003011800088
:1005c000004f78008560a9001e407800ed4f500074
:1005d00004003a0010c0b30002e8b7000168ef0061
:1005e0000800370001c8bf000080fb0041802000e8
:1005f0001e4178008270780001c8bf000040e8000a
:1006000001e8b7000080fa004f0178004f00be00fb
:0c061000004006000040da000000fe0080
:020000040000fa
:10061c000400fa0020479800314798002e409000c3
:10062c0000404000804078003e40900000cf4000e9
:10063c001e407800020007000080fa00000006004f
:10064c000200fa00004f780000000000401080000b
:10065c00610060000000e000fcff3a008620a90069
:10066c001e80fb001010880000000000411080006c
:10067c0000002800008060000000e000fbff3a0052
:10068c000000000030048000620060000000e00008
:10069c00fcff3a0000000000411080000000240024
:1006ac00008060000000e000fbff3a000080fa00d0
:1006bc00000006000800fa00100798004147980057
:1006cc0052479800634798008040eb006e409000c2
:1006dc00cfff07005e409000d9ff07000040eb0001
:1006ec00004f7800060037001e80fb009e00900033
:1006fc000080400010407800d1ff07001e4fe8003a
:10070c004e4090009e40780080cf5000f6ff39009c
:10071c00570007000080fa00000006000400fa00f1
:10072c00204798008620a9000662a800000000005f
:10073c0030048000620060000000e000fcff3a0022
:10074c008620a900000000004010800062006000bc
:10075c000000e000fcff320000108000004f780029
:10076c002e409000e14f500001003a00400007007d
:10077c001e4078000080fa00000006000800fa0015
:10078c00881f78001007980041479800524798003e
:10079c00634798002d0007008040eb006e409000ee
:1007ac009bff07005e409000a5ff07003b00070081
:1007bc0011c0b3006e40900095ff07000040eb00a5
:1007cc00004f78004e419000018020008248780054
:1007dc000040eb00004f7800140037001e80fb0037
:1007ec009e009000008440000040eb00cbff07000f
:1007fc00004c78009e80fb004e4090000080fb0077
:10080c000000e900808f50000700320006a2a9000a
:10081c000682a8000000000030108000700060000c
:10082c000000e000fcff3a001e4fe8004e40900034
:10083c009e40780080cf5000e8ff39000c00070084
:10084c004f0478000080fa00000006000000fa0057
:10085c000602a8000000000030108000610060005b
:10086c000000e000fcff3a000080fa0000000600e7
:10087c000000fa0006a2a8000682a80000000000f2
:10088c0030108000700060000000e000fcff3a00b7
:10089c000642a8000080fa00000006000000fa00e2
:1008ac000622a800000000003010800062006000ea
:1008bc000000e000fcff3a000080fa000000060097
:1008cc000000fa0014000700470007003f00070073
:1008dc005a0007004d0007008004200020118800fa
:1008ec00010037000000000002c8bf00e14f5000bb
:1008fc00fcff3a000268ef00c3c1b30012c0b300a2
:10090c0021c0b300808120009cff07008081200063
:10091c0063000700f4ff37000000fa00800220009b
:10092c00303a8800213a8000f0f32f0000806000fc
:10093c00203a8800213a800000fe2f0000806000e1
:10094c00203a88003200200080072000a1092000f6
:10095c0033742000804978008149780082497800fe
:10096c001200200060042000710520002374200078
:10097c0080497800814978008249780000000000a5
:10098c00113a8000000027008080600000002300e6
:10099c00808f5000faff3a0000000000113a8000ee
:1009ac0000022000008060000000e000fbff32002d
:1009bc0060042000103a880070052000103a88006e
:1009cc0042c7a9000080fa00000006000000fa00ef
:1009dc000080eb00601988000080eb006019880033
:1009ec000080fa00000006000000fa00d00520008c
:1009fc002010880007e2a8008600a9000722a800a2
:100a0c000762a9000080fa00000006000000fa004e
:100a1c008eff07008040eb00c0c1b300fcfe070056
:100a2c00a0c2b30006ff070090c0b30004ff07008c
:100a3c008fff07000080fa00000006000000fa009b
:100a4c002135800000fe2f00008060000030a000e7
:100a5c002035880031368000f00f2e008080600039
:100a6c000030200001007000303688001008200093
:100a7c004011880023e2a80021e2a8009560a8009c
:100a8c002342a800009620000100200079fe0700f8
:100a9c008580a9008560a9000080fa00000006008e
:100aac000400fa00100798000040eb00004f78009b
:100abc000040eb00004f78000a0037001e80fb005e
:100acc009e00900000804000104078000080fb00e9
:100adc002011880000502300c100200065fe070093
:100aec001e4fe80000c8bf009e40780080cf500029
:0c0afc00f2ff39000080fa000000060044
:020000040000fa
:100b08000408000046000000000000000008000083
:0c0b1800040000000000000000000000cd
:020000040000fa
:0200000401f009
:04000c008000000070
:020000040000fa
:0200000401f009
:040010006500000087
:020000040000fa
:0200000401f009
:040014005f00000089
:020000040000fa
:0200000401f009
:04001800e7000000fd
:020000040000fa
:0200000401f009
:04001c00c20000001e
:00000001FF
